{
  "_format": "hh-sol-artifact-1",
  "contractName": "MimoWallet",
  "sourceName": "contracts/wallet/MimoWallet.sol",
  "abi": [
    {
      "inputs": [
        {
          "internalType": "contract IEntryPoint",
          "name": "anEntryPoint",
          "type": "address"
        }
      ],
      "stateMutability": "nonpayable",
      "type": "constructor"
    },
    {
      "anonymous": false,
      "inputs": [
        {
          "indexed": false,
          "internalType": "address",
          "name": "previousAdmin",
          "type": "address"
        },
        {
          "indexed": false,
          "internalType": "address",
          "name": "newAdmin",
          "type": "address"
        }
      ],
      "name": "AdminChanged",
      "type": "event"
    },
    {
      "anonymous": false,
      "inputs": [
        {
          "indexed": true,
          "internalType": "address",
          "name": "beacon",
          "type": "address"
        }
      ],
      "name": "BeaconUpgraded",
      "type": "event"
    },
    {
      "anonymous": false,
      "inputs": [
        {
          "indexed": false,
          "internalType": "uint8",
          "name": "version",
          "type": "uint8"
        }
      ],
      "name": "Initialized",
      "type": "event"
    },
    {
      "anonymous": false,
      "inputs": [
        {
          "indexed": false,
          "internalType": "address",
          "name": "_entrypoint",
          "type": "address"
        },
        {
          "indexed": false,
          "internalType": "address",
          "name": "_owner",
          "type": "address"
        }
      ],
      "name": "MimoAccountInitialized",
      "type": "event"
    },
    {
      "anonymous": false,
      "inputs": [
        {
          "indexed": true,
          "internalType": "bytes32",
          "name": "role",
          "type": "bytes32"
        },
        {
          "indexed": true,
          "internalType": "bytes32",
          "name": "previousAdminRole",
          "type": "bytes32"
        },
        {
          "indexed": true,
          "internalType": "bytes32",
          "name": "newAdminRole",
          "type": "bytes32"
        }
      ],
      "name": "RoleAdminChanged",
      "type": "event"
    },
    {
      "anonymous": false,
      "inputs": [
        {
          "indexed": true,
          "internalType": "bytes32",
          "name": "role",
          "type": "bytes32"
        },
        {
          "indexed": true,
          "internalType": "address",
          "name": "account",
          "type": "address"
        },
        {
          "indexed": true,
          "internalType": "address",
          "name": "sender",
          "type": "address"
        }
      ],
      "name": "RoleGranted",
      "type": "event"
    },
    {
      "anonymous": false,
      "inputs": [
        {
          "indexed": true,
          "internalType": "bytes32",
          "name": "role",
          "type": "bytes32"
        },
        {
          "indexed": true,
          "internalType": "address",
          "name": "account",
          "type": "address"
        },
        {
          "indexed": true,
          "internalType": "address",
          "name": "sender",
          "type": "address"
        }
      ],
      "name": "RoleRevoked",
      "type": "event"
    },
    {
      "anonymous": false,
      "inputs": [
        {
          "indexed": true,
          "internalType": "address",
          "name": "implementation",
          "type": "address"
        }
      ],
      "name": "Upgraded",
      "type": "event"
    },
    {
      "inputs": [],
      "name": "DEFAULT_ADMIN_ROLE",
      "outputs": [
        {
          "internalType": "bytes32",
          "name": "",
          "type": "bytes32"
        }
      ],
      "stateMutability": "view",
      "type": "function"
    },
    {
      "inputs": [],
      "name": "GUARDIAN_ROLE",
      "outputs": [
        {
          "internalType": "bytes32",
          "name": "",
          "type": "bytes32"
        }
      ],
      "stateMutability": "view",
      "type": "function"
    },
    {
      "inputs": [],
      "name": "_threshold",
      "outputs": [
        {
          "internalType": "uint8",
          "name": "",
          "type": "uint8"
        }
      ],
      "stateMutability": "view",
      "type": "function"
    },
    {
      "inputs": [],
      "name": "addDeposit",
      "outputs": [],
      "stateMutability": "payable",
      "type": "function"
    },
    {
      "inputs": [
        {
          "internalType": "address",
          "name": "newGuardian",
          "type": "address"
        }
      ],
      "name": "addGuardian",
      "outputs": [],
      "stateMutability": "nonpayable",
      "type": "function"
    },
    {
      "inputs": [
        {
          "internalType": "address",
          "name": "newOwner",
          "type": "address"
        }
      ],
      "name": "addOwner",
      "outputs": [],
      "stateMutability": "nonpayable",
      "type": "function"
    },
    {
      "inputs": [],
      "name": "entryPoint",
      "outputs": [
        {
          "internalType": "contract IEntryPoint",
          "name": "",
          "type": "address"
        }
      ],
      "stateMutability": "view",
      "type": "function"
    },
    {
      "inputs": [
        {
          "internalType": "address",
          "name": "dest",
          "type": "address"
        },
        {
          "internalType": "uint256",
          "name": "value",
          "type": "uint256"
        },
        {
          "internalType": "bytes",
          "name": "func",
          "type": "bytes"
        }
      ],
      "name": "execute",
      "outputs": [],
      "stateMutability": "nonpayable",
      "type": "function"
    },
    {
      "inputs": [
        {
          "internalType": "address[]",
          "name": "dest",
          "type": "address[]"
        },
        {
          "internalType": "uint256[]",
          "name": "value",
          "type": "uint256[]"
        },
        {
          "internalType": "bytes[]",
          "name": "func",
          "type": "bytes[]"
        }
      ],
      "name": "executeBatch",
      "outputs": [],
      "stateMutability": "nonpayable",
      "type": "function"
    },
    {
      "inputs": [],
      "name": "getDeposit",
      "outputs": [
        {
          "internalType": "uint256",
          "name": "",
          "type": "uint256"
        }
      ],
      "stateMutability": "view",
      "type": "function"
    },
    {
      "inputs": [],
      "name": "getNonce",
      "outputs": [
        {
          "internalType": "uint256",
          "name": "",
          "type": "uint256"
        }
      ],
      "stateMutability": "view",
      "type": "function"
    },
    {
      "inputs": [
        {
          "internalType": "bytes32",
          "name": "role",
          "type": "bytes32"
        }
      ],
      "name": "getRoleAdmin",
      "outputs": [
        {
          "internalType": "bytes32",
          "name": "",
          "type": "bytes32"
        }
      ],
      "stateMutability": "view",
      "type": "function"
    },
    {
      "inputs": [
        {
          "internalType": "bytes32",
          "name": "role",
          "type": "bytes32"
        },
        {
          "internalType": "address",
          "name": "account",
          "type": "address"
        }
      ],
      "name": "grantRole",
      "outputs": [],
      "stateMutability": "nonpayable",
      "type": "function"
    },
    {
      "inputs": [
        {
          "internalType": "bytes32",
          "name": "role",
          "type": "bytes32"
        },
        {
          "internalType": "address",
          "name": "account",
          "type": "address"
        }
      ],
      "name": "hasRole",
      "outputs": [
        {
          "internalType": "bool",
          "name": "",
          "type": "bool"
        }
      ],
      "stateMutability": "view",
      "type": "function"
    },
    {
      "inputs": [
        {
          "internalType": "address",
          "name": "anOwner",
          "type": "address"
        },
        {
          "internalType": "address[]",
          "name": "guardians",
          "type": "address[]"
        }
      ],
      "name": "initialize",
      "outputs": [],
      "stateMutability": "nonpayable",
      "type": "function"
    },
    {
      "inputs": [],
      "name": "nonce",
      "outputs": [
        {
          "internalType": "uint256",
          "name": "",
          "type": "uint256"
        }
      ],
      "stateMutability": "view",
      "type": "function"
    },
    {
      "inputs": [],
      "name": "proxiableUUID",
      "outputs": [
        {
          "internalType": "bytes32",
          "name": "",
          "type": "bytes32"
        }
      ],
      "stateMutability": "view",
      "type": "function"
    },
    {
      "inputs": [
        {
          "internalType": "address",
          "name": "oldGuardian",
          "type": "address"
        }
      ],
      "name": "removeGuardian",
      "outputs": [],
      "stateMutability": "nonpayable",
      "type": "function"
    },
    {
      "inputs": [
        {
          "internalType": "address",
          "name": "oldOwner",
          "type": "address"
        }
      ],
      "name": "removeOwner",
      "outputs": [],
      "stateMutability": "nonpayable",
      "type": "function"
    },
    {
      "inputs": [
        {
          "internalType": "bytes32",
          "name": "role",
          "type": "bytes32"
        },
        {
          "internalType": "address",
          "name": "account",
          "type": "address"
        }
      ],
      "name": "renounceRole",
      "outputs": [],
      "stateMutability": "nonpayable",
      "type": "function"
    },
    {
      "inputs": [
        {
          "internalType": "bytes32",
          "name": "role",
          "type": "bytes32"
        },
        {
          "internalType": "address",
          "name": "account",
          "type": "address"
        }
      ],
      "name": "revokeRole",
      "outputs": [],
      "stateMutability": "nonpayable",
      "type": "function"
    },
    {
      "inputs": [
        {
          "internalType": "bytes4",
          "name": "interfaceId",
          "type": "bytes4"
        }
      ],
      "name": "supportsInterface",
      "outputs": [
        {
          "internalType": "bool",
          "name": "",
          "type": "bool"
        }
      ],
      "stateMutability": "view",
      "type": "function"
    },
    {
      "inputs": [],
      "name": "threshold",
      "outputs": [
        {
          "internalType": "uint256",
          "name": "",
          "type": "uint256"
        }
      ],
      "stateMutability": "view",
      "type": "function"
    },
    {
      "inputs": [
        {
          "internalType": "address",
          "name": "newImplementation",
          "type": "address"
        }
      ],
      "name": "upgradeTo",
      "outputs": [],
      "stateMutability": "nonpayable",
      "type": "function"
    },
    {
      "inputs": [
        {
          "internalType": "address",
          "name": "newImplementation",
          "type": "address"
        },
        {
          "internalType": "bytes",
          "name": "data",
          "type": "bytes"
        }
      ],
      "name": "upgradeToAndCall",
      "outputs": [],
      "stateMutability": "payable",
      "type": "function"
    },
    {
      "inputs": [
        {
          "components": [
            {
              "internalType": "address",
              "name": "sender",
              "type": "address"
            },
            {
              "internalType": "uint256",
              "name": "nonce",
              "type": "uint256"
            },
            {
              "internalType": "bytes",
              "name": "initCode",
              "type": "bytes"
            },
            {
              "internalType": "bytes",
              "name": "callData",
              "type": "bytes"
            },
            {
              "internalType": "uint256",
              "name": "callGasLimit",
              "type": "uint256"
            },
            {
              "internalType": "uint256",
              "name": "verificationGasLimit",
              "type": "uint256"
            },
            {
              "internalType": "uint256",
              "name": "preVerificationGas",
              "type": "uint256"
            },
            {
              "internalType": "uint256",
              "name": "maxFeePerGas",
              "type": "uint256"
            },
            {
              "internalType": "uint256",
              "name": "maxPriorityFeePerGas",
              "type": "uint256"
            },
            {
              "internalType": "bytes",
              "name": "paymasterAndData",
              "type": "bytes"
            },
            {
              "internalType": "bytes",
              "name": "signature",
              "type": "bytes"
            }
          ],
          "internalType": "struct UserOperation",
          "name": "userOp",
          "type": "tuple"
        },
        {
          "internalType": "bytes32",
          "name": "userOpHash",
          "type": "bytes32"
        },
        {
          "internalType": "uint256",
          "name": "missingAccountFunds",
          "type": "uint256"
        }
      ],
      "name": "validateUserOp",
      "outputs": [
        {
          "internalType": "uint256",
          "name": "validationData",
          "type": "uint256"
        }
      ],
      "stateMutability": "nonpayable",
      "type": "function"
    },
    {
      "inputs": [
        {
          "internalType": "address payable",
          "name": "withdrawAddress",
          "type": "address"
        },
        {
          "internalType": "uint256",
          "name": "amount",
          "type": "uint256"
        }
      ],
      "name": "withdrawDepositTo",
      "outputs": [],
      "stateMutability": "nonpayable",
      "type": "function"
    },
    {
      "stateMutability": "payable",
      "type": "receive"
    }
  ],
  "bytecode": "0x60c06040523073ffffffffffffffffffffffffffffffffffffffff1660809073ffffffffffffffffffffffffffffffffffffffff1681525060016003600c6101000a81548160ff021916908360ff1602179055503480156200006057600080fd5b5060405162004ac038038062004ac0833981810160405281019062000086919062000216565b8073ffffffffffffffffffffffffffffffffffffffff1660a08173ffffffffffffffffffffffffffffffffffffffff1681525050620000ca620000d160201b60201c565b506200032c565b600060019054906101000a900460ff161562000124576040517f08c379a00000000000000000000000000000000000000000000000000000000081526004016200011b90620002cf565b60405180910390fd5b60ff801660008054906101000a900460ff1660ff161015620001965760ff6000806101000a81548160ff021916908360ff1602179055507f7f26b83ff96e1f2b6a682f133852f6798a09c465da95921460cefb384740249860ff6040516200018d91906200030f565b60405180910390a15b565b600080fd5b600073ffffffffffffffffffffffffffffffffffffffff82169050919050565b6000620001ca826200019d565b9050919050565b6000620001de82620001bd565b9050919050565b620001f081620001d1565b8114620001fc57600080fd5b50565b6000815190506200021081620001e5565b92915050565b6000602082840312156200022f576200022e62000198565b5b60006200023f84828501620001ff565b91505092915050565b600082825260208201905092915050565b7f496e697469616c697a61626c653a20636f6e747261637420697320696e69746960008201527f616c697a696e6700000000000000000000000000000000000000000000000000602082015250565b6000620002b760278362000248565b9150620002c48262000259565b604082019050919050565b60006020820190508181036000830152620002ea81620002a8565b9050919050565b600060ff82169050919050565b6200030981620002f1565b82525050565b6000602082019050620003266000830184620002fe565b92915050565b60805160a05161473d620003836000396000818161103f015281816116f2015281816117230152611dde0152600081816107b10152818161083f01528181610bcd01528181610c5b0152610d0b015261473d6000f3fe6080604052600436106101a05760003560e01c806352d1902d116100ec578063a526d83b1161008a578063b61d27f611610064578063b61d27f61461058d578063c399ec88146105b6578063d087d288146105e1578063d547741f1461060c576101a7565b8063a526d83b1461050e578063affed0e014610537578063b0d691fe14610562576101a7565b80637f3c8160116100c65780637f3c81601461045257806391d148541461047d578063946d9204146104ba578063a217fddf146104e3576101a7565b806352d1902d146103d55780637065cb48146104005780637140415614610429576101a7565b80633659cfe61161015957806347e1da2a1161013357806347e1da2a1461035d5780634a58db19146103865780634d44560d146103905780634f1ef286146103b9576101a7565b80633659cfe6146102cc5780633a871cdd146102f557806342cde4e814610332576101a7565b806301ffc9a7146101ac578063173825d9146101e9578063248a9ca31461021257806324ea54f41461024f5780632f2ff15d1461027a57806336568abe146102a3576101a7565b366101a757005b600080fd5b3480156101b857600080fd5b506101d360048036038101906101ce9190612cb3565b610635565b6040516101e09190612cfb565b60405180910390f35b3480156101f557600080fd5b50610210600480360381019061020b9190612d74565b6106af565b005b34801561021e57600080fd5b5061023960048036038101906102349190612dd7565b6106c7565b6040516102469190612e13565b60405180910390f35b34801561025b57600080fd5b506102646106e7565b6040516102719190612e13565b60405180910390f35b34801561028657600080fd5b506102a1600480360381019061029c9190612e2e565b61070b565b005b3480156102af57600080fd5b506102ca60048036038101906102c59190612e2e565b61072c565b005b3480156102d857600080fd5b506102f360048036038101906102ee9190612d74565b6107af565b005b34801561030157600080fd5b5061031c60048036038101906103179190612ec9565b610937565b6040516103299190612f47565b60405180910390f35b34801561033e57600080fd5b50610347610980565b6040516103549190612f47565b60405180910390f35b34801561036957600080fd5b50610384600480360381019061037f9190613073565b61099a565b005b61038e610ad6565b005b34801561039c57600080fd5b506103b760048036038101906103b29190613165565b610b4b565b005b6103d360048036038101906103ce91906132e6565b610bcb565b005b3480156103e157600080fd5b506103ea610d07565b6040516103f79190612e13565b60405180910390f35b34801561040c57600080fd5b5061042760048036038101906104229190612d74565b610dc0565b005b34801561043557600080fd5b50610450600480360381019061044b9190612d74565b610dd8565b005b34801561045e57600080fd5b50610467610e0d565b604051610474919061335e565b60405180910390f35b34801561048957600080fd5b506104a4600480360381019061049f9190612e2e565b610e20565b6040516104b19190612cfb565b60405180910390f35b3480156104c657600080fd5b506104e160048036038101906104dc9190613379565b610e8b565b005b3480156104ef57600080fd5b506104f8610fcf565b6040516105059190612e13565b60405180910390f35b34801561051a57600080fd5b5061053560048036038101906105309190612d74565b610fd6565b005b34801561054357600080fd5b5061054c61100b565b6040516105599190612f47565b60405180910390f35b34801561056e57600080fd5b5061057761103b565b6040516105849190613438565b60405180910390f35b34801561059957600080fd5b506105b460048036038101906105af91906134a9565b611063565b005b3480156105c257600080fd5b506105cb6110c0565b6040516105d89190612f47565b60405180910390f35b3480156105ed57600080fd5b506105f6611148565b6040516106039190612f47565b60405180910390f35b34801561061857600080fd5b50610633600480360381019061062e9190612e2e565b611178565b005b60007f7965db0b000000000000000000000000000000000000000000000000000000007bffffffffffffffffffffffffffffffffffffffffffffffffffffffff1916827bffffffffffffffffffffffffffffffffffffffffffffffffffffffff191614806106a857506106a782611199565b5b9050919050565b6106b7611203565b6106c46000801b82611178565b50565b600060016000838152602001908152602001600020600101549050919050565b7f55435dd261a4b9b3364963f7738a7a662ad9c84396d64be3365284bb7f0a504181565b610714826106c7565b61071d81611287565b610727838361129b565b505050565b61073461137b565b73ffffffffffffffffffffffffffffffffffffffff168173ffffffffffffffffffffffffffffffffffffffff16146107a1576040517f08c379a0000000000000000000000000000000000000000000000000000000008152600401610798906135a0565b60405180910390fd5b6107ab8282611383565b5050565b7f000000000000000000000000000000000000000000000000000000000000000073ffffffffffffffffffffffffffffffffffffffff163073ffffffffffffffffffffffffffffffffffffffff160361083d576040517f08c379a000000000000000000000000000000000000000000000000000000000815260040161083490613632565b60405180910390fd5b7f000000000000000000000000000000000000000000000000000000000000000073ffffffffffffffffffffffffffffffffffffffff1661087c611465565b73ffffffffffffffffffffffffffffffffffffffff16146108d2576040517f08c379a00000000000000000000000000000000000000000000000000000000081526004016108c9906136c4565b60405180910390fd5b6108db816114bc565b61093481600067ffffffffffffffff8111156108fa576108f96131bb565b5b6040519080825280601f01601f19166020018201604052801561092c5781602001600182028036833780820191505090505b5060006114c7565b50565b6000610941611635565b61094b84846116ac565b9050600084806040019061095f91906136f3565b9050036109705761096f84611a2d565b5b61097982611b19565b9392505050565b60006003600c9054906101000a900460ff1660ff16905090565b6109a2611bb5565b818190508686905014806109bb57508383905086869050145b6109fa576040517f08c379a00000000000000000000000000000000000000000000000000000000081526004016109f1906137a2565b60405180910390fd5b60005b86869050811015610acd57610aba878783818110610a1e57610a1d6137c2565b5b9050602002016020810190610a339190612d74565b868684818110610a4657610a456137c2565b5b90506020020135858585818110610a6057610a5f6137c2565b5b9050602002810190610a7291906136f3565b8080601f016020809104026020016040519081016040528093929190818152602001838380828437600081840152601f19601f82011690508083019250505050505050611c94565b8080610ac590613820565b9150506109fd565b50505050505050565b610ade61103b565b73ffffffffffffffffffffffffffffffffffffffff1663b760faf934306040518363ffffffff1660e01b8152600401610b179190613877565b6000604051808303818588803b158015610b3057600080fd5b505af1158015610b44573d6000803e3d6000fd5b5050505050565b610b53611203565b610b5b61103b565b73ffffffffffffffffffffffffffffffffffffffff1663205c287883836040518363ffffffff1660e01b8152600401610b959291906138a1565b600060405180830381600087803b158015610baf57600080fd5b505af1158015610bc3573d6000803e3d6000fd5b505050505050565b7f000000000000000000000000000000000000000000000000000000000000000073ffffffffffffffffffffffffffffffffffffffff163073ffffffffffffffffffffffffffffffffffffffff1603610c59576040517f08c379a0000000000000000000000000000000000000000000000000000000008152600401610c5090613632565b60405180910390fd5b7f000000000000000000000000000000000000000000000000000000000000000073ffffffffffffffffffffffffffffffffffffffff16610c98611465565b73ffffffffffffffffffffffffffffffffffffffff1614610cee576040517f08c379a0000000000000000000000000000000000000000000000000000000008152600401610ce5906136c4565b60405180910390fd5b610cf7826114bc565b610d03828260016114c7565b5050565b60007f000000000000000000000000000000000000000000000000000000000000000073ffffffffffffffffffffffffffffffffffffffff163073ffffffffffffffffffffffffffffffffffffffff1614610d97576040517f08c379a0000000000000000000000000000000000000000000000000000000008152600401610d8e9061393c565b60405180910390fd5b7f360894a13ba1a3210667c828492db98dca3e2076cc3735a920a3ca505d382bbc60001b905090565b610dc8611203565b610dd56000801b8261070b565b50565b610de0611203565b610e0a7f55435dd261a4b9b3364963f7738a7a662ad9c84396d64be3365284bb7f0a504182611178565b50565b6003600c9054906101000a900460ff1681565b60006001600084815260200190815260200160002060000160008373ffffffffffffffffffffffffffffffffffffffff1673ffffffffffffffffffffffffffffffffffffffff16815260200190815260200160002060009054906101000a900460ff16905092915050565b60008060019054906101000a900460ff16159050808015610ebc5750600160008054906101000a900460ff1660ff16105b80610ee95750610ecb30611d18565b158015610ee85750600160008054906101000a900460ff1660ff16145b5b610f28576040517f08c379a0000000000000000000000000000000000000000000000000000000008152600401610f1f906139ce565b60405180910390fd5b60016000806101000a81548160ff021916908360ff1602179055508015610f65576001600060016101000a81548160ff0219169083151502179055505b610f70848484611d3b565b8015610fc95760008060016101000a81548160ff0219169083151502179055507f7f26b83ff96e1f2b6a682f133852f6798a09c465da95921460cefb38474024986001604051610fc09190613a29565b60405180910390a15b50505050565b6000801b81565b610fde611203565b6110087f55435dd261a4b9b3364963f7738a7a662ad9c84396d64be3365284bb7f0a50418261070b565b50565b6000600360009054906101000a90046bffffffffffffffffffffffff166bffffffffffffffffffffffff16905090565b60007f0000000000000000000000000000000000000000000000000000000000000000905090565b61106b611bb5565b6110ba848484848080601f016020809104026020016040519081016040528093929190818152602001838380828437600081840152601f19601f82011690508083019250505050505050611c94565b50505050565b60006110ca61103b565b73ffffffffffffffffffffffffffffffffffffffff166370a08231306040518263ffffffff1660e01b81526004016111029190613877565b602060405180830381865afa15801561111f573d6000803e3d6000fd5b505050506040513d601f19601f820116820180604052508101906111439190613a59565b905090565b6000600360009054906101000a90046bffffffffffffffffffffffff166bffffffffffffffffffffffff16905090565b611181826106c7565b61118a81611287565b6111948383611383565b505050565b60007f01ffc9a7000000000000000000000000000000000000000000000000000000007bffffffffffffffffffffffffffffffffffffffffffffffffffffffff1916827bffffffffffffffffffffffffffffffffffffffffffffffffffffffff1916149050919050565b6112106000801b33610e20565b8061124657503073ffffffffffffffffffffffffffffffffffffffff163373ffffffffffffffffffffffffffffffffffffffff16145b611285576040517f08c379a000000000000000000000000000000000000000000000000000000000815260040161127c90613ad2565b60405180910390fd5b565b6112988161129361137b565b611e19565b50565b6112a58282610e20565b61137757600180600084815260200190815260200160002060000160008373ffffffffffffffffffffffffffffffffffffffff1673ffffffffffffffffffffffffffffffffffffffff16815260200190815260200160002060006101000a81548160ff02191690831515021790555061131c61137b565b73ffffffffffffffffffffffffffffffffffffffff168173ffffffffffffffffffffffffffffffffffffffff16837f2f8788117e7eff1d82e926ec794901d17c78024a50270940304540a733656f0d60405160405180910390a45b5050565b600033905090565b61138d8282610e20565b156114615760006001600084815260200190815260200160002060000160008373ffffffffffffffffffffffffffffffffffffffff1673ffffffffffffffffffffffffffffffffffffffff16815260200190815260200160002060006101000a81548160ff02191690831515021790555061140661137b565b73ffffffffffffffffffffffffffffffffffffffff168173ffffffffffffffffffffffffffffffffffffffff16837ff6391f5c32d9c69d2a47ea670b442974b53935d1edc7fd64eb21e047a839171b60405160405180910390a45b5050565b60006114937f360894a13ba1a3210667c828492db98dca3e2076cc3735a920a3ca505d382bbc60001b611e9e565b60000160009054906101000a900473ffffffffffffffffffffffffffffffffffffffff16905090565b6114c4611203565b50565b6114f37f4910fdfa16fed3260ed0e7147f7cc6da11a60208b5b9406d12a635614ffd914360001b611ea8565b60000160009054906101000a900460ff16156115175761151283611eb2565b611630565b8273ffffffffffffffffffffffffffffffffffffffff166352d1902d6040518163ffffffff1660e01b8152600401602060405180830381865afa92505050801561157f57506040513d601f19601f8201168201806040525081019061157c9190613b07565b60015b6115be576040517f08c379a00000000000000000000000000000000000000000000000000000000081526004016115b590613ba6565b60405180910390fd5b7f360894a13ba1a3210667c828492db98dca3e2076cc3735a920a3ca505d382bbc60001b8114611623576040517f08c379a000000000000000000000000000000000000000000000000000000000815260040161161a90613c38565b60405180910390fd5b5061162f838383611f6b565b5b505050565b61163d61103b565b73ffffffffffffffffffffffffffffffffffffffff163373ffffffffffffffffffffffffffffffffffffffff16146116aa576040517f08c379a00000000000000000000000000000000000000000000000000000000081526004016116a190613ca4565b60405180910390fd5b565b60006116ec6040518060400160405280601481526020017f6265666f7265206f7065726174696f6e68617368000000000000000000000000815250611f97565b611716467f0000000000000000000000000000000000000000000000000000000000000000612030565b6000611721846120cc565b7f00000000000000000000000000000000000000000000000000000000000000004660405160200161175593929190613cc4565b604051602081830303815290604052805190602001209050611776816120e5565b6117b56040518060400160405280600f81526020017f636861696e64496420696e2065766d00000000000000000000000000000000008152504661217e565b8083146117f7576040517f08c379a00000000000000000000000000000000000000000000000000000000081526004016117ee90613d47565b60405180910390fd5b60006118028461221a565b90506118426040518060400160405280600f81526020017f657468207369676e656420686173680000000000000000000000000000000000815250611f97565b61184b816120e5565b6118ef6040518060400160405280601181526020017f7265636f766572656420616464726573730000000000000000000000000000008152506118ea8780610140019061189891906136f3565b8080601f016020809104026020016040519081016040528093929190818152602001838380828437600081840152601f19601f820116905080830192505050505050508461224a90919063ffffffff16565b612271565b61199f6040518060400160405280600881526020017f68617320726f6c6500000000000000000000000000000000000000000000000081525061199a6000801b6119958980610140019061194391906136f3565b8080601f016020809104026020016040519081016040528093929190818152602001838380828437600081840152601f19601f820116905080830192505050505050508661224a90919063ffffffff16565b610e20565b61230d565b611a116000801b611a0c878061014001906119ba91906136f3565b8080601f016020809104026020016040519081016040528093929190818152602001838380828437600081840152601f19601f820116905080830192505050505050508461224a90919063ffffffff16565b610e20565b611a2057600192505050611a27565b6000925050505b92915050565b80602001356003600081819054906101000a90046bffffffffffffffffffffffff1680929190611a5c90613d7f565b91906101000a8154816bffffffffffffffffffffffff02191690836bffffffffffffffffffffffff1602179055506bffffffffffffffffffffffff1614611ad8576040517f08c379a0000000000000000000000000000000000000000000000000000000008152600401611acf90613dff565b60405180910390fd5b611b166040518060400160405280600b81526020017f6166746572206e6f6e6365000000000000000000000000000000000000000000815250611f97565b50565b60008114611bb25760003373ffffffffffffffffffffffffffffffffffffffff16827fffffffffffffffffffffffffffffffffffffffffffffffffffffffffffffffff90604051611b6990613e50565b600060405180830381858888f193505050503d8060008114611ba7576040519150601f19603f3d011682016040523d82523d6000602084013e611bac565b606091505b50509050505b50565b611bf46040518060400160405280600a81526020017f6d73672e73656e6465720000000000000000000000000000000000000000000081525033612271565b611c09611c046000801b33610e20565b6123a9565b611c1161103b565b73ffffffffffffffffffffffffffffffffffffffff163373ffffffffffffffffffffffffffffffffffffffff161480611c535750611c526000801b33610e20565b5b611c92576040517f08c379a0000000000000000000000000000000000000000000000000000000008152600401611c8990613ed7565b60405180910390fd5b565b6000808473ffffffffffffffffffffffffffffffffffffffff168484604051611cbd9190613f5d565b60006040518083038185875af1925050503d8060008114611cfa576040519150601f19603f3d011682016040523d82523d6000602084013e611cff565b606091505b509150915081611d1157805160208201fd5b5050505050565b6000808273ffffffffffffffffffffffffffffffffffffffff163b119050919050565b611d486000801b84612442565b60005b82829050811015611dba57611da77f55435dd261a4b9b3364963f7738a7a662ad9c84396d64be3365284bb7f0a5041848484818110611d8d57611d8c6137c2565b5b9050602002016020810190611da29190612d74565b61070b565b8080611db290613820565b915050611d4b565b507f9606c1ff478ad1fb1f0c49b152331385c9e692907a74f4fe729eb61457ac9e4c7f000000000000000000000000000000000000000000000000000000000000000084604051611e0c929190613f74565b60405180910390a1505050565b611e238282610e20565b611e9a57611e3081612450565b611e3e8360001c602061247d565b604051602001611e4f92919061407c565b6040516020818303038152906040526040517f08c379a0000000000000000000000000000000000000000000000000000000008152600401611e9191906140ef565b60405180910390fd5b5050565b6000819050919050565b6000819050919050565b611ebb81611d18565b611efa576040517f08c379a0000000000000000000000000000000000000000000000000000000008152600401611ef190614183565b60405180910390fd5b80611f277f360894a13ba1a3210667c828492db98dca3e2076cc3735a920a3ca505d382bbc60001b611e9e565b60000160006101000a81548173ffffffffffffffffffffffffffffffffffffffff021916908373ffffffffffffffffffffffffffffffffffffffff16021790555050565b611f74836126b9565b600082511180611f815750805b15611f9257611f908383612708565b505b505050565b61202d81604051602401611fab91906140ef565b6040516020818303038152906040527f41304fac000000000000000000000000000000000000000000000000000000007bffffffffffffffffffffffffffffffffffffffffffffffffffffffff19166020820180517bffffffffffffffffffffffffffffffffffffffffffffffffffffffff8381831617835250505050612735565b50565b6120c882826040516024016120469291906141a3565b6040516020818303038152906040527f69276c86000000000000000000000000000000000000000000000000000000007bffffffffffffffffffffffffffffffffffffffffffffffffffffffff19166020820180517bffffffffffffffffffffffffffffffffffffffffffffffffffffffff8381831617835250505050612735565b5050565b60006120d78261275e565b805190602001209050919050565b61217b816040516024016120f99190612e13565b6040516020818303038152906040527f27b7cf85000000000000000000000000000000000000000000000000000000007bffffffffffffffffffffffffffffffffffffffffffffffffffffffff19166020820180517bffffffffffffffffffffffffffffffffffffffffffffffffffffffff8381831617835250505050612735565b50565b61221682826040516024016121949291906141cc565b6040516020818303038152906040527fb60e72cc000000000000000000000000000000000000000000000000000000007bffffffffffffffffffffffffffffffffffffffffffffffffffffffff19166020820180517bffffffffffffffffffffffffffffffffffffffffffffffffffffffff8381831617835250505050612735565b5050565b60008160405160200161222d9190614269565b604051602081830303815290604052805190602001209050919050565b6000806000612259858561283c565b915091506122668161288d565b819250505092915050565b612309828260405160240161228792919061428f565b6040516020818303038152906040527f319af333000000000000000000000000000000000000000000000000000000007bffffffffffffffffffffffffffffffffffffffffffffffffffffffff19166020820180517bffffffffffffffffffffffffffffffffffffffffffffffffffffffff8381831617835250505050612735565b5050565b6123a582826040516024016123239291906142bf565b6040516020818303038152906040527fc3b55635000000000000000000000000000000000000000000000000000000007bffffffffffffffffffffffffffffffffffffffffffffffffffffffff19166020820180517bffffffffffffffffffffffffffffffffffffffffffffffffffffffff8381831617835250505050612735565b5050565b61243f816040516024016123bd9190612cfb565b6040516020818303038152906040527f32458eed000000000000000000000000000000000000000000000000000000007bffffffffffffffffffffffffffffffffffffffffffffffffffffffff19166020820180517bffffffffffffffffffffffffffffffffffffffffffffffffffffffff8381831617835250505050612735565b50565b61244c828261129b565b5050565b60606124768273ffffffffffffffffffffffffffffffffffffffff16601460ff1661247d565b9050919050565b60606000600283600261249091906142ef565b61249a9190614331565b67ffffffffffffffff8111156124b3576124b26131bb565b5b6040519080825280601f01601f1916602001820160405280156124e55781602001600182028036833780820191505090505b5090507f30000000000000000000000000000000000000000000000000000000000000008160008151811061251d5761251c6137c2565b5b60200101907effffffffffffffffffffffffffffffffffffffffffffffffffffffffffffff1916908160001a9053507f780000000000000000000000000000000000000000000000000000000000000081600181518110612581576125806137c2565b5b60200101907effffffffffffffffffffffffffffffffffffffffffffffffffffffffffffff1916908160001a905350600060018460026125c191906142ef565b6125cb9190614331565b90505b600181111561266b577f3031323334353637383961626364656600000000000000000000000000000000600f86166010811061260d5761260c6137c2565b5b1a60f81b828281518110612624576126236137c2565b5b60200101907effffffffffffffffffffffffffffffffffffffffffffffffffffffffffffff1916908160001a905350600485901c94508061266490614365565b90506125ce565b50600084146126af576040517f08c379a00000000000000000000000000000000000000000000000000000000081526004016126a6906143da565b60405180910390fd5b8091505092915050565b6126c281611eb2565b8073ffffffffffffffffffffffffffffffffffffffff167fbc7cd75a20ee27fd9adebab32041f755214dbc6bffa90cc0225b39da2e5c2d3b60405160405180910390a250565b606061272d83836040518060600160405280602781526020016146e1602791396129f3565b905092915050565b60008151905060006a636f6e736f6c652e6c6f679050602083016000808483855afa5050505050565b6060600061276b83612a79565b9050600083602001359050600061279085806040019061278b91906136f3565b612a89565b905060006127ac8680606001906127a791906136f3565b612a89565b905060008660800135905060008760a00135905060008860c00135905060008960e00135905060008a6101000135905060006127f78c8061012001906127f291906136f3565b612a89565b90508989898989898989898960405160200161281c9a999897969594939291906143fa565b6040516020818303038152906040529a5050505050505050505050919050565b600080604183510361287d5760008060006020860151925060408601519150606086015160001a905061287187828585612aa0565b94509450505050612886565b60006002915091505b9250929050565b600060048111156128a1576128a0614496565b5b8160048111156128b4576128b3614496565b5b03156129f057600160048111156128ce576128cd614496565b5b8160048111156128e1576128e0614496565b5b03612921576040517f08c379a000000000000000000000000000000000000000000000000000000000815260040161291890614511565b60405180910390fd5b6002600481111561293557612934614496565b5b81600481111561294857612947614496565b5b03612988576040517f08c379a000000000000000000000000000000000000000000000000000000000815260040161297f9061457d565b60405180910390fd5b6003600481111561299c5761299b614496565b5b8160048111156129af576129ae614496565b5b036129ef576040517f08c379a00000000000000000000000000000000000000000000000000000000081526004016129e69061460f565b60405180910390fd5b5b50565b60606000808573ffffffffffffffffffffffffffffffffffffffff1685604051612a1d9190613f5d565b600060405180830381855af49150503d8060008114612a58576040519150601f19603f3d011682016040523d82523d6000602084013e612a5d565b606091505b5091509150612a6e86838387612b82565b925050509392505050565b6000808235905080915050919050565b600060405182808583378082209250505092915050565b6000807f7fffffffffffffffffffffffffffffff5d576e7357a4501ddfe92f46681b20a08360001c1115612adb576000600391509150612b79565b600060018787878760405160008152602001604052604051612b00949392919061462f565b6020604051602081039080840390855afa158015612b22573d6000803e3d6000fd5b505050602060405103519050600073ffffffffffffffffffffffffffffffffffffffff168173ffffffffffffffffffffffffffffffffffffffff1603612b7057600060019250925050612b79565b80600092509250505b94509492505050565b60608315612be4576000835103612bdc57612b9c85611d18565b612bdb576040517f08c379a0000000000000000000000000000000000000000000000000000000008152600401612bd2906146c0565b60405180910390fd5b5b829050612bef565b612bee8383612bf7565b5b949350505050565b600082511115612c0a5781518083602001fd5b806040517f08c379a0000000000000000000000000000000000000000000000000000000008152600401612c3e91906140ef565b60405180910390fd5b6000604051905090565b600080fd5b600080fd5b60007fffffffff0000000000000000000000000000000000000000000000000000000082169050919050565b612c9081612c5b565b8114612c9b57600080fd5b50565b600081359050612cad81612c87565b92915050565b600060208284031215612cc957612cc8612c51565b5b6000612cd784828501612c9e565b91505092915050565b60008115159050919050565b612cf581612ce0565b82525050565b6000602082019050612d106000830184612cec565b92915050565b600073ffffffffffffffffffffffffffffffffffffffff82169050919050565b6000612d4182612d16565b9050919050565b612d5181612d36565b8114612d5c57600080fd5b50565b600081359050612d6e81612d48565b92915050565b600060208284031215612d8a57612d89612c51565b5b6000612d9884828501612d5f565b91505092915050565b6000819050919050565b612db481612da1565b8114612dbf57600080fd5b50565b600081359050612dd181612dab565b92915050565b600060208284031215612ded57612dec612c51565b5b6000612dfb84828501612dc2565b91505092915050565b612e0d81612da1565b82525050565b6000602082019050612e286000830184612e04565b92915050565b60008060408385031215612e4557612e44612c51565b5b6000612e5385828601612dc2565b9250506020612e6485828601612d5f565b9150509250929050565b600080fd5b60006101608284031215612e8a57612e89612e6e565b5b81905092915050565b6000819050919050565b612ea681612e93565b8114612eb157600080fd5b50565b600081359050612ec381612e9d565b92915050565b600080600060608486031215612ee257612ee1612c51565b5b600084013567ffffffffffffffff811115612f0057612eff612c56565b5b612f0c86828701612e73565b9350506020612f1d86828701612dc2565b9250506040612f2e86828701612eb4565b9150509250925092565b612f4181612e93565b82525050565b6000602082019050612f5c6000830184612f38565b92915050565b600080fd5b600080fd5b600080fd5b60008083601f840112612f8757612f86612f62565b5b8235905067ffffffffffffffff811115612fa457612fa3612f67565b5b602083019150836020820283011115612fc057612fbf612f6c565b5b9250929050565b60008083601f840112612fdd57612fdc612f62565b5b8235905067ffffffffffffffff811115612ffa57612ff9612f67565b5b60208301915083602082028301111561301657613015612f6c565b5b9250929050565b60008083601f84011261303357613032612f62565b5b8235905067ffffffffffffffff8111156130505761304f612f67565b5b60208301915083602082028301111561306c5761306b612f6c565b5b9250929050565b600080600080600080606087890312156130905761308f612c51565b5b600087013567ffffffffffffffff8111156130ae576130ad612c56565b5b6130ba89828a01612f71565b9650965050602087013567ffffffffffffffff8111156130dd576130dc612c56565b5b6130e989828a01612fc7565b9450945050604087013567ffffffffffffffff81111561310c5761310b612c56565b5b61311889828a0161301d565b92509250509295509295509295565b600061313282612d16565b9050919050565b61314281613127565b811461314d57600080fd5b50565b60008135905061315f81613139565b92915050565b6000806040838503121561317c5761317b612c51565b5b600061318a85828601613150565b925050602061319b85828601612eb4565b9150509250929050565b600080fd5b6000601f19601f8301169050919050565b7f4e487b7100000000000000000000000000000000000000000000000000000000600052604160045260246000fd5b6131f3826131aa565b810181811067ffffffffffffffff82111715613212576132116131bb565b5b80604052505050565b6000613225612c47565b905061323182826131ea565b919050565b600067ffffffffffffffff821115613251576132506131bb565b5b61325a826131aa565b9050602081019050919050565b82818337600083830152505050565b600061328961328484613236565b61321b565b9050828152602081018484840111156132a5576132a46131a5565b5b6132b0848285613267565b509392505050565b600082601f8301126132cd576132cc612f62565b5b81356132dd848260208601613276565b91505092915050565b600080604083850312156132fd576132fc612c51565b5b600061330b85828601612d5f565b925050602083013567ffffffffffffffff81111561332c5761332b612c56565b5b613338858286016132b8565b9150509250929050565b600060ff82169050919050565b61335881613342565b82525050565b6000602082019050613373600083018461334f565b92915050565b60008060006040848603121561339257613391612c51565b5b60006133a086828701612d5f565b935050602084013567ffffffffffffffff8111156133c1576133c0612c56565b5b6133cd86828701612f71565b92509250509250925092565b6000819050919050565b60006133fe6133f96133f484612d16565b6133d9565b612d16565b9050919050565b6000613410826133e3565b9050919050565b600061342282613405565b9050919050565b61343281613417565b82525050565b600060208201905061344d6000830184613429565b92915050565b60008083601f84011261346957613468612f62565b5b8235905067ffffffffffffffff81111561348657613485612f67565b5b6020830191508360018202830111156134a2576134a1612f6c565b5b9250929050565b600080600080606085870312156134c3576134c2612c51565b5b60006134d187828801612d5f565b94505060206134e287828801612eb4565b935050604085013567ffffffffffffffff81111561350357613502612c56565b5b61350f87828801613453565b925092505092959194509250565b600082825260208201905092915050565b7f416363657373436f6e74726f6c3a2063616e206f6e6c792072656e6f756e636560008201527f20726f6c657320666f722073656c660000000000000000000000000000000000602082015250565b600061358a602f8361351d565b91506135958261352e565b604082019050919050565b600060208201905081810360008301526135b98161357d565b9050919050565b7f46756e6374696f6e206d7573742062652063616c6c6564207468726f7567682060008201527f64656c656761746563616c6c0000000000000000000000000000000000000000602082015250565b600061361c602c8361351d565b9150613627826135c0565b604082019050919050565b6000602082019050818103600083015261364b8161360f565b9050919050565b7f46756e6374696f6e206d7573742062652063616c6c6564207468726f7567682060008201527f6163746976652070726f78790000000000000000000000000000000000000000602082015250565b60006136ae602c8361351d565b91506136b982613652565b604082019050919050565b600060208201905081810360008301526136dd816136a1565b9050919050565b600080fd5b600080fd5b600080fd5b600080833560016020038436030381126137105761370f6136e4565b5b80840192508235915067ffffffffffffffff821115613732576137316136e9565b5b60208301925060018202360383131561374e5761374d6136ee565b5b509250929050565b7f77726f6e67206172726179206c656e6774687300000000000000000000000000600082015250565b600061378c60138361351d565b915061379782613756565b602082019050919050565b600060208201905081810360008301526137bb8161377f565b9050919050565b7f4e487b7100000000000000000000000000000000000000000000000000000000600052603260045260246000fd5b7f4e487b7100000000000000000000000000000000000000000000000000000000600052601160045260246000fd5b600061382b82612e93565b91507fffffffffffffffffffffffffffffffffffffffffffffffffffffffffffffffff820361385d5761385c6137f1565b5b600182019050919050565b61387181612d36565b82525050565b600060208201905061388c6000830184613868565b92915050565b61389b81613127565b82525050565b60006040820190506138b66000830185613892565b6138c36020830184612f38565b9392505050565b7f555550535570677261646561626c653a206d757374206e6f742062652063616c60008201527f6c6564207468726f7567682064656c656761746563616c6c0000000000000000602082015250565b600061392660388361351d565b9150613931826138ca565b604082019050919050565b6000602082019050818103600083015261395581613919565b9050919050565b7f496e697469616c697a61626c653a20636f6e747261637420697320616c72656160008201527f647920696e697469616c697a6564000000000000000000000000000000000000602082015250565b60006139b8602e8361351d565b91506139c38261395c565b604082019050919050565b600060208201905081810360008301526139e7816139ab565b9050919050565b6000819050919050565b6000613a13613a0e613a09846139ee565b6133d9565b613342565b9050919050565b613a23816139f8565b82525050565b6000602082019050613a3e6000830184613a1a565b92915050565b600081519050613a5381612e9d565b92915050565b600060208284031215613a6f57613a6e612c51565b5b6000613a7d84828501613a44565b91505092915050565b7f4d696d6f4163636f756e7457616c6c65743a20756e617574686f72697a656400600082015250565b6000613abc601f8361351d565b9150613ac782613a86565b602082019050919050565b60006020820190508181036000830152613aeb81613aaf565b9050919050565b600081519050613b0181612dab565b92915050565b600060208284031215613b1d57613b1c612c51565b5b6000613b2b84828501613af2565b91505092915050565b7f45524331393637557067726164653a206e657720696d706c656d656e7461746960008201527f6f6e206973206e6f742055555053000000000000000000000000000000000000602082015250565b6000613b90602e8361351d565b9150613b9b82613b34565b604082019050919050565b60006020820190508181036000830152613bbf81613b83565b9050919050565b7f45524331393637557067726164653a20756e737570706f727465642070726f7860008201527f6961626c65555549440000000000000000000000000000000000000000000000602082015250565b6000613c2260298361351d565b9150613c2d82613bc6565b604082019050919050565b60006020820190508181036000830152613c5181613c15565b9050919050565b7f6163636f756e743a206e6f742066726f6d20456e747279506f696e7400000000600082015250565b6000613c8e601c8361351d565b9150613c9982613c58565b602082019050919050565b60006020820190508181036000830152613cbd81613c81565b9050919050565b6000606082019050613cd96000830186612e04565b613ce66020830185613868565b613cf36040830184612f38565b949350505050565b7f496e76616c6964204f7065726174696f6e204861736800000000000000000000600082015250565b6000613d3160168361351d565b9150613d3c82613cfb565b602082019050919050565b60006020820190508181036000830152613d6081613d24565b9050919050565b60006bffffffffffffffffffffffff82169050919050565b6000613d8a82613d67565b91506bffffffffffffffffffffffff8203613da857613da76137f1565b5b600182019050919050565b7f6163636f756e743a20696e76616c6964206e6f6e636500000000000000000000600082015250565b6000613de960168361351d565b9150613df482613db3565b602082019050919050565b60006020820190508181036000830152613e1881613ddc565b9050919050565b600081905092915050565b50565b6000613e3a600083613e1f565b9150613e4582613e2a565b600082019050919050565b6000613e5b82613e2d565b9150819050919050565b7f4d696d6f4163636f756e7457616c6c65743a206e6f74204f776e6572206f722060008201527f456e747279506f696e7400000000000000000000000000000000000000000000602082015250565b6000613ec1602a8361351d565b9150613ecc82613e65565b604082019050919050565b60006020820190508181036000830152613ef081613eb4565b9050919050565b600081519050919050565b60005b83811015613f20578082015181840152602081019050613f05565b60008484015250505050565b6000613f3782613ef7565b613f418185613e1f565b9350613f51818560208601613f02565b80840191505092915050565b6000613f698284613f2c565b915081905092915050565b6000604082019050613f896000830185613868565b613f966020830184613868565b9392505050565b600081905092915050565b7f416363657373436f6e74726f6c3a206163636f756e7420000000000000000000600082015250565b6000613fde601783613f9d565b9150613fe982613fa8565b601782019050919050565b600081519050919050565b600061400a82613ff4565b6140148185613f9d565b9350614024818560208601613f02565b80840191505092915050565b7f206973206d697373696e6720726f6c6520000000000000000000000000000000600082015250565b6000614066601183613f9d565b915061407182614030565b601182019050919050565b600061408782613fd1565b91506140938285613fff565b915061409e82614059565b91506140aa8284613fff565b91508190509392505050565b60006140c182613ff4565b6140cb818561351d565b93506140db818560208601613f02565b6140e4816131aa565b840191505092915050565b6000602082019050818103600083015261410981846140b6565b905092915050565b7f455243313936373a206e657720696d706c656d656e746174696f6e206973206e60008201527f6f74206120636f6e747261637400000000000000000000000000000000000000602082015250565b600061416d602d8361351d565b915061417882614111565b604082019050919050565b6000602082019050818103600083015261419c81614160565b9050919050565b60006040820190506141b86000830185612f38565b6141c56020830184613868565b9392505050565b600060408201905081810360008301526141e681856140b6565b90506141f56020830184612f38565b9392505050565b7f19457468657265756d205369676e6564204d6573736167653a0a333200000000600082015250565b6000614232601c83613f9d565b915061423d826141fc565b601c82019050919050565b6000819050919050565b61426361425e82612da1565b614248565b82525050565b600061427482614225565b91506142808284614252565b60208201915081905092915050565b600060408201905081810360008301526142a981856140b6565b90506142b86020830184613868565b9392505050565b600060408201905081810360008301526142d981856140b6565b90506142e86020830184612cec565b9392505050565b60006142fa82612e93565b915061430583612e93565b925082820261431381612e93565b9150828204841483151761432a576143296137f1565b5b5092915050565b600061433c82612e93565b915061434783612e93565b925082820190508082111561435f5761435e6137f1565b5b92915050565b600061437082612e93565b915060008203614383576143826137f1565b5b600182039050919050565b7f537472696e67733a20686578206c656e67746820696e73756666696369656e74600082015250565b60006143c460208361351d565b91506143cf8261438e565b602082019050919050565b600060208201905081810360008301526143f3816143b7565b9050919050565b600061014082019050614410600083018d613868565b61441d602083018c612f38565b61442a604083018b612e04565b614437606083018a612e04565b6144446080830189612f38565b61445160a0830188612f38565b61445e60c0830187612f38565b61446b60e0830186612f38565b614479610100830185612f38565b614487610120830184612e04565b9b9a5050505050505050505050565b7f4e487b7100000000000000000000000000000000000000000000000000000000600052602160045260246000fd5b7f45434453413a20696e76616c6964207369676e61747572650000000000000000600082015250565b60006144fb60188361351d565b9150614506826144c5565b602082019050919050565b6000602082019050818103600083015261452a816144ee565b9050919050565b7f45434453413a20696e76616c6964207369676e6174757265206c656e67746800600082015250565b6000614567601f8361351d565b915061457282614531565b602082019050919050565b600060208201905081810360008301526145968161455a565b9050919050565b7f45434453413a20696e76616c6964207369676e6174757265202773272076616c60008201527f7565000000000000000000000000000000000000000000000000000000000000602082015250565b60006145f960228361351d565b91506146048261459d565b604082019050919050565b60006020820190508181036000830152614628816145ec565b9050919050565b60006080820190506146446000830187612e04565b614651602083018661334f565b61465e6040830185612e04565b61466b6060830184612e04565b95945050505050565b7f416464726573733a2063616c6c20746f206e6f6e2d636f6e7472616374000000600082015250565b60006146aa601d8361351d565b91506146b582614674565b602082019050919050565b600060208201905081810360008301526146d98161469d565b905091905056fe416464726573733a206c6f772d6c6576656c2064656c65676174652063616c6c206661696c6564a2646970667358221220dacee82782d8bc3d2fef8cdea545371584b16eed80b3183a044b74956b33312164736f6c63430008110033",
  "linkReferences": {},
  "deployedLinkReferences": {}
}