{
  "_format": "hh-sol-artifact-1",
  "contractName": "EntryPoint",
  "sourceName": "contracts/aa-4337/core/EntryPoint.sol",
  "abi": [
    {
      "inputs": [
        {
          "internalType": "uint256",
          "name": "preOpGas",
          "type": "uint256"
        },
        {
          "internalType": "uint256",
          "name": "paid",
          "type": "uint256"
        },
        {
          "internalType": "uint48",
          "name": "validAfter",
          "type": "uint48"
        },
        {
          "internalType": "uint48",
          "name": "validUntil",
          "type": "uint48"
        },
        {
          "internalType": "bool",
          "name": "targetSuccess",
          "type": "bool"
        },
        {
          "internalType": "bytes",
          "name": "targetResult",
          "type": "bytes"
        }
      ],
      "name": "ExecutionResult",
      "type": "error"
    },
    {
      "inputs": [
        {
          "internalType": "uint256",
          "name": "opIndex",
          "type": "uint256"
        },
        {
          "internalType": "string",
          "name": "reason",
          "type": "string"
        }
      ],
      "name": "FailedOp",
      "type": "error"
    },
    {
      "inputs": [
        {
          "internalType": "address",
          "name": "sender",
          "type": "address"
        }
      ],
      "name": "SenderAddressResult",
      "type": "error"
    },
    {
      "inputs": [
        {
          "internalType": "address",
          "name": "aggregator",
          "type": "address"
        }
      ],
      "name": "SignatureValidationFailed",
      "type": "error"
    },
    {
      "inputs": [
        {
          "components": [
            {
              "internalType": "uint256",
              "name": "preOpGas",
              "type": "uint256"
            },
            {
              "internalType": "uint256",
              "name": "prefund",
              "type": "uint256"
            },
            {
              "internalType": "bool",
              "name": "sigFailed",
              "type": "bool"
            },
            {
              "internalType": "uint48",
              "name": "validAfter",
              "type": "uint48"
            },
            {
              "internalType": "uint48",
              "name": "validUntil",
              "type": "uint48"
            },
            {
              "internalType": "bytes",
              "name": "paymasterContext",
              "type": "bytes"
            }
          ],
          "internalType": "struct IEntryPoint.ReturnInfo",
          "name": "returnInfo",
          "type": "tuple"
        },
        {
          "components": [
            {
              "internalType": "uint256",
              "name": "stake",
              "type": "uint256"
            },
            {
              "internalType": "uint256",
              "name": "unstakeDelaySec",
              "type": "uint256"
            }
          ],
          "internalType": "struct IStakeManager.StakeInfo",
          "name": "senderInfo",
          "type": "tuple"
        },
        {
          "components": [
            {
              "internalType": "uint256",
              "name": "stake",
              "type": "uint256"
            },
            {
              "internalType": "uint256",
              "name": "unstakeDelaySec",
              "type": "uint256"
            }
          ],
          "internalType": "struct IStakeManager.StakeInfo",
          "name": "factoryInfo",
          "type": "tuple"
        },
        {
          "components": [
            {
              "internalType": "uint256",
              "name": "stake",
              "type": "uint256"
            },
            {
              "internalType": "uint256",
              "name": "unstakeDelaySec",
              "type": "uint256"
            }
          ],
          "internalType": "struct IStakeManager.StakeInfo",
          "name": "paymasterInfo",
          "type": "tuple"
        }
      ],
      "name": "ValidationResult",
      "type": "error"
    },
    {
      "inputs": [
        {
          "components": [
            {
              "internalType": "uint256",
              "name": "preOpGas",
              "type": "uint256"
            },
            {
              "internalType": "uint256",
              "name": "prefund",
              "type": "uint256"
            },
            {
              "internalType": "bool",
              "name": "sigFailed",
              "type": "bool"
            },
            {
              "internalType": "uint48",
              "name": "validAfter",
              "type": "uint48"
            },
            {
              "internalType": "uint48",
              "name": "validUntil",
              "type": "uint48"
            },
            {
              "internalType": "bytes",
              "name": "paymasterContext",
              "type": "bytes"
            }
          ],
          "internalType": "struct IEntryPoint.ReturnInfo",
          "name": "returnInfo",
          "type": "tuple"
        },
        {
          "components": [
            {
              "internalType": "uint256",
              "name": "stake",
              "type": "uint256"
            },
            {
              "internalType": "uint256",
              "name": "unstakeDelaySec",
              "type": "uint256"
            }
          ],
          "internalType": "struct IStakeManager.StakeInfo",
          "name": "senderInfo",
          "type": "tuple"
        },
        {
          "components": [
            {
              "internalType": "uint256",
              "name": "stake",
              "type": "uint256"
            },
            {
              "internalType": "uint256",
              "name": "unstakeDelaySec",
              "type": "uint256"
            }
          ],
          "internalType": "struct IStakeManager.StakeInfo",
          "name": "factoryInfo",
          "type": "tuple"
        },
        {
          "components": [
            {
              "internalType": "uint256",
              "name": "stake",
              "type": "uint256"
            },
            {
              "internalType": "uint256",
              "name": "unstakeDelaySec",
              "type": "uint256"
            }
          ],
          "internalType": "struct IStakeManager.StakeInfo",
          "name": "paymasterInfo",
          "type": "tuple"
        },
        {
          "components": [
            {
              "internalType": "address",
              "name": "aggregator",
              "type": "address"
            },
            {
              "components": [
                {
                  "internalType": "uint256",
                  "name": "stake",
                  "type": "uint256"
                },
                {
                  "internalType": "uint256",
                  "name": "unstakeDelaySec",
                  "type": "uint256"
                }
              ],
              "internalType": "struct IStakeManager.StakeInfo",
              "name": "stakeInfo",
              "type": "tuple"
            }
          ],
          "internalType": "struct IEntryPoint.AggregatorStakeInfo",
          "name": "aggregatorInfo",
          "type": "tuple"
        }
      ],
      "name": "ValidationResultWithAggregation",
      "type": "error"
    },
    {
      "anonymous": false,
      "inputs": [
        {
          "indexed": true,
          "internalType": "bytes32",
          "name": "userOpHash",
          "type": "bytes32"
        },
        {
          "indexed": true,
          "internalType": "address",
          "name": "sender",
          "type": "address"
        },
        {
          "indexed": false,
          "internalType": "address",
          "name": "factory",
          "type": "address"
        },
        {
          "indexed": false,
          "internalType": "address",
          "name": "paymaster",
          "type": "address"
        }
      ],
      "name": "AccountDeployed",
      "type": "event"
    },
    {
      "anonymous": false,
      "inputs": [
        {
          "indexed": true,
          "internalType": "address",
          "name": "account",
          "type": "address"
        },
        {
          "indexed": false,
          "internalType": "uint256",
          "name": "totalDeposit",
          "type": "uint256"
        }
      ],
      "name": "Deposited",
      "type": "event"
    },
    {
      "anonymous": false,
      "inputs": [
        {
          "indexed": true,
          "internalType": "address",
          "name": "aggregator",
          "type": "address"
        }
      ],
      "name": "SignatureAggregatorChanged",
      "type": "event"
    },
    {
      "anonymous": false,
      "inputs": [
        {
          "indexed": true,
          "internalType": "address",
          "name": "account",
          "type": "address"
        },
        {
          "indexed": false,
          "internalType": "uint256",
          "name": "totalStaked",
          "type": "uint256"
        },
        {
          "indexed": false,
          "internalType": "uint256",
          "name": "unstakeDelaySec",
          "type": "uint256"
        }
      ],
      "name": "StakeLocked",
      "type": "event"
    },
    {
      "anonymous": false,
      "inputs": [
        {
          "indexed": true,
          "internalType": "address",
          "name": "account",
          "type": "address"
        },
        {
          "indexed": false,
          "internalType": "uint256",
          "name": "withdrawTime",
          "type": "uint256"
        }
      ],
      "name": "StakeUnlocked",
      "type": "event"
    },
    {
      "anonymous": false,
      "inputs": [
        {
          "indexed": true,
          "internalType": "address",
          "name": "account",
          "type": "address"
        },
        {
          "indexed": false,
          "internalType": "address",
          "name": "withdrawAddress",
          "type": "address"
        },
        {
          "indexed": false,
          "internalType": "uint256",
          "name": "amount",
          "type": "uint256"
        }
      ],
      "name": "StakeWithdrawn",
      "type": "event"
    },
    {
      "anonymous": false,
      "inputs": [
        {
          "indexed": true,
          "internalType": "bytes32",
          "name": "userOpHash",
          "type": "bytes32"
        },
        {
          "indexed": true,
          "internalType": "address",
          "name": "sender",
          "type": "address"
        },
        {
          "indexed": true,
          "internalType": "address",
          "name": "paymaster",
          "type": "address"
        },
        {
          "indexed": false,
          "internalType": "uint256",
          "name": "nonce",
          "type": "uint256"
        },
        {
          "indexed": false,
          "internalType": "bool",
          "name": "success",
          "type": "bool"
        },
        {
          "indexed": false,
          "internalType": "uint256",
          "name": "actualGasCost",
          "type": "uint256"
        },
        {
          "indexed": false,
          "internalType": "uint256",
          "name": "actualGasUsed",
          "type": "uint256"
        }
      ],
      "name": "UserOperationEvent",
      "type": "event"
    },
    {
      "anonymous": false,
      "inputs": [
        {
          "indexed": true,
          "internalType": "bytes32",
          "name": "userOpHash",
          "type": "bytes32"
        },
        {
          "indexed": true,
          "internalType": "address",
          "name": "sender",
          "type": "address"
        },
        {
          "indexed": false,
          "internalType": "uint256",
          "name": "nonce",
          "type": "uint256"
        },
        {
          "indexed": false,
          "internalType": "bytes",
          "name": "revertReason",
          "type": "bytes"
        }
      ],
      "name": "UserOperationRevertReason",
      "type": "event"
    },
    {
      "anonymous": false,
      "inputs": [
        {
          "indexed": true,
          "internalType": "address",
          "name": "account",
          "type": "address"
        },
        {
          "indexed": false,
          "internalType": "address",
          "name": "withdrawAddress",
          "type": "address"
        },
        {
          "indexed": false,
          "internalType": "uint256",
          "name": "amount",
          "type": "uint256"
        }
      ],
      "name": "Withdrawn",
      "type": "event"
    },
    {
      "inputs": [],
      "name": "SIG_VALIDATION_FAILED",
      "outputs": [
        {
          "internalType": "uint256",
          "name": "",
          "type": "uint256"
        }
      ],
      "stateMutability": "view",
      "type": "function"
    },
    {
      "inputs": [
        {
          "internalType": "bytes",
          "name": "initCode",
          "type": "bytes"
        },
        {
          "internalType": "address",
          "name": "sender",
          "type": "address"
        },
        {
          "internalType": "bytes",
          "name": "paymasterAndData",
          "type": "bytes"
        }
      ],
      "name": "_validateSenderAndPaymaster",
      "outputs": [],
      "stateMutability": "view",
      "type": "function"
    },
    {
      "inputs": [
        {
          "internalType": "uint32",
          "name": "unstakeDelaySec",
          "type": "uint32"
        }
      ],
      "name": "addStake",
      "outputs": [],
      "stateMutability": "payable",
      "type": "function"
    },
    {
      "inputs": [
        {
          "internalType": "address",
          "name": "account",
          "type": "address"
        }
      ],
      "name": "balanceOf",
      "outputs": [
        {
          "internalType": "uint256",
          "name": "",
          "type": "uint256"
        }
      ],
      "stateMutability": "view",
      "type": "function"
    },
    {
      "inputs": [
        {
          "internalType": "address",
          "name": "account",
          "type": "address"
        }
      ],
      "name": "depositTo",
      "outputs": [],
      "stateMutability": "payable",
      "type": "function"
    },
    {
      "inputs": [
        {
          "internalType": "address",
          "name": "",
          "type": "address"
        }
      ],
      "name": "deposits",
      "outputs": [
        {
          "internalType": "uint112",
          "name": "deposit",
          "type": "uint112"
        },
        {
          "internalType": "bool",
          "name": "staked",
          "type": "bool"
        },
        {
          "internalType": "uint112",
          "name": "stake",
          "type": "uint112"
        },
        {
          "internalType": "uint32",
          "name": "unstakeDelaySec",
          "type": "uint32"
        },
        {
          "internalType": "uint48",
          "name": "withdrawTime",
          "type": "uint48"
        }
      ],
      "stateMutability": "view",
      "type": "function"
    },
    {
      "inputs": [
        {
          "internalType": "address",
          "name": "account",
          "type": "address"
        }
      ],
      "name": "getDepositInfo",
      "outputs": [
        {
          "components": [
            {
              "internalType": "uint112",
              "name": "deposit",
              "type": "uint112"
            },
            {
              "internalType": "bool",
              "name": "staked",
              "type": "bool"
            },
            {
              "internalType": "uint112",
              "name": "stake",
              "type": "uint112"
            },
            {
              "internalType": "uint32",
              "name": "unstakeDelaySec",
              "type": "uint32"
            },
            {
              "internalType": "uint48",
              "name": "withdrawTime",
              "type": "uint48"
            }
          ],
          "internalType": "struct IStakeManager.DepositInfo",
          "name": "info",
          "type": "tuple"
        }
      ],
      "stateMutability": "view",
      "type": "function"
    },
    {
      "inputs": [
        {
          "internalType": "bytes",
          "name": "initCode",
          "type": "bytes"
        }
      ],
      "name": "getSenderAddress",
      "outputs": [],
      "stateMutability": "nonpayable",
      "type": "function"
    },
    {
      "inputs": [
        {
          "components": [
            {
              "internalType": "address",
              "name": "sender",
              "type": "address"
            },
            {
              "internalType": "uint256",
              "name": "nonce",
              "type": "uint256"
            },
            {
              "internalType": "bytes",
              "name": "initCode",
              "type": "bytes"
            },
            {
              "internalType": "bytes",
              "name": "callData",
              "type": "bytes"
            },
            {
              "internalType": "uint256",
              "name": "callGasLimit",
              "type": "uint256"
            },
            {
              "internalType": "uint256",
              "name": "verificationGasLimit",
              "type": "uint256"
            },
            {
              "internalType": "uint256",
              "name": "preVerificationGas",
              "type": "uint256"
            },
            {
              "internalType": "uint256",
              "name": "maxFeePerGas",
              "type": "uint256"
            },
            {
              "internalType": "uint256",
              "name": "maxPriorityFeePerGas",
              "type": "uint256"
            },
            {
              "internalType": "bytes",
              "name": "paymasterAndData",
              "type": "bytes"
            },
            {
              "internalType": "bytes",
              "name": "signature",
              "type": "bytes"
            }
          ],
          "internalType": "struct UserOperation",
          "name": "userOp",
          "type": "tuple"
        }
      ],
      "name": "getUserOpHash",
      "outputs": [
        {
          "internalType": "bytes32",
          "name": "",
          "type": "bytes32"
        }
      ],
      "stateMutability": "view",
      "type": "function"
    },
    {
      "inputs": [
        {
          "components": [
            {
              "components": [
                {
                  "internalType": "address",
                  "name": "sender",
                  "type": "address"
                },
                {
                  "internalType": "uint256",
                  "name": "nonce",
                  "type": "uint256"
                },
                {
                  "internalType": "bytes",
                  "name": "initCode",
                  "type": "bytes"
                },
                {
                  "internalType": "bytes",
                  "name": "callData",
                  "type": "bytes"
                },
                {
                  "internalType": "uint256",
                  "name": "callGasLimit",
                  "type": "uint256"
                },
                {
                  "internalType": "uint256",
                  "name": "verificationGasLimit",
                  "type": "uint256"
                },
                {
                  "internalType": "uint256",
                  "name": "preVerificationGas",
                  "type": "uint256"
                },
                {
                  "internalType": "uint256",
                  "name": "maxFeePerGas",
                  "type": "uint256"
                },
                {
                  "internalType": "uint256",
                  "name": "maxPriorityFeePerGas",
                  "type": "uint256"
                },
                {
                  "internalType": "bytes",
                  "name": "paymasterAndData",
                  "type": "bytes"
                },
                {
                  "internalType": "bytes",
                  "name": "signature",
                  "type": "bytes"
                }
              ],
              "internalType": "struct UserOperation[]",
              "name": "userOps",
              "type": "tuple[]"
            },
            {
              "internalType": "contract IAggregator",
              "name": "aggregator",
              "type": "address"
            },
            {
              "internalType": "bytes",
              "name": "signature",
              "type": "bytes"
            }
          ],
          "internalType": "struct IEntryPoint.UserOpsPerAggregator[]",
          "name": "opsPerAggregator",
          "type": "tuple[]"
        },
        {
          "internalType": "address payable",
          "name": "beneficiary",
          "type": "address"
        }
      ],
      "name": "handleAggregatedOps",
      "outputs": [],
      "stateMutability": "nonpayable",
      "type": "function"
    },
    {
      "inputs": [
        {
          "components": [
            {
              "internalType": "address",
              "name": "sender",
              "type": "address"
            },
            {
              "internalType": "uint256",
              "name": "nonce",
              "type": "uint256"
            },
            {
              "internalType": "bytes",
              "name": "initCode",
              "type": "bytes"
            },
            {
              "internalType": "bytes",
              "name": "callData",
              "type": "bytes"
            },
            {
              "internalType": "uint256",
              "name": "callGasLimit",
              "type": "uint256"
            },
            {
              "internalType": "uint256",
              "name": "verificationGasLimit",
              "type": "uint256"
            },
            {
              "internalType": "uint256",
              "name": "preVerificationGas",
              "type": "uint256"
            },
            {
              "internalType": "uint256",
              "name": "maxFeePerGas",
              "type": "uint256"
            },
            {
              "internalType": "uint256",
              "name": "maxPriorityFeePerGas",
              "type": "uint256"
            },
            {
              "internalType": "bytes",
              "name": "paymasterAndData",
              "type": "bytes"
            },
            {
              "internalType": "bytes",
              "name": "signature",
              "type": "bytes"
            }
          ],
          "internalType": "struct UserOperation[]",
          "name": "ops",
          "type": "tuple[]"
        },
        {
          "internalType": "address payable",
          "name": "beneficiary",
          "type": "address"
        }
      ],
      "name": "handleOps",
      "outputs": [],
      "stateMutability": "nonpayable",
      "type": "function"
    },
    {
      "inputs": [
        {
          "internalType": "bytes",
          "name": "callData",
          "type": "bytes"
        },
        {
          "components": [
            {
              "components": [
                {
                  "internalType": "address",
                  "name": "sender",
                  "type": "address"
                },
                {
                  "internalType": "uint256",
                  "name": "nonce",
                  "type": "uint256"
                },
                {
                  "internalType": "uint256",
                  "name": "callGasLimit",
                  "type": "uint256"
                },
                {
                  "internalType": "uint256",
                  "name": "verificationGasLimit",
                  "type": "uint256"
                },
                {
                  "internalType": "uint256",
                  "name": "preVerificationGas",
                  "type": "uint256"
                },
                {
                  "internalType": "address",
                  "name": "paymaster",
                  "type": "address"
                },
                {
                  "internalType": "uint256",
                  "name": "maxFeePerGas",
                  "type": "uint256"
                },
                {
                  "internalType": "uint256",
                  "name": "maxPriorityFeePerGas",
                  "type": "uint256"
                }
              ],
              "internalType": "struct EntryPoint.MemoryUserOp",
              "name": "mUserOp",
              "type": "tuple"
            },
            {
              "internalType": "bytes32",
              "name": "userOpHash",
              "type": "bytes32"
            },
            {
              "internalType": "uint256",
              "name": "prefund",
              "type": "uint256"
            },
            {
              "internalType": "uint256",
              "name": "contextOffset",
              "type": "uint256"
            },
            {
              "internalType": "uint256",
              "name": "preOpGas",
              "type": "uint256"
            }
          ],
          "internalType": "struct EntryPoint.UserOpInfo",
          "name": "opInfo",
          "type": "tuple"
        },
        {
          "internalType": "bytes",
          "name": "context",
          "type": "bytes"
        }
      ],
      "name": "innerHandleOp",
      "outputs": [
        {
          "internalType": "uint256",
          "name": "actualGasCost",
          "type": "uint256"
        }
      ],
      "stateMutability": "nonpayable",
      "type": "function"
    },
    {
      "inputs": [
        {
          "components": [
            {
              "internalType": "address",
              "name": "sender",
              "type": "address"
            },
            {
              "internalType": "uint256",
              "name": "nonce",
              "type": "uint256"
            },
            {
              "internalType": "bytes",
              "name": "initCode",
              "type": "bytes"
            },
            {
              "internalType": "bytes",
              "name": "callData",
              "type": "bytes"
            },
            {
              "internalType": "uint256",
              "name": "callGasLimit",
              "type": "uint256"
            },
            {
              "internalType": "uint256",
              "name": "verificationGasLimit",
              "type": "uint256"
            },
            {
              "internalType": "uint256",
              "name": "preVerificationGas",
              "type": "uint256"
            },
            {
              "internalType": "uint256",
              "name": "maxFeePerGas",
              "type": "uint256"
            },
            {
              "internalType": "uint256",
              "name": "maxPriorityFeePerGas",
              "type": "uint256"
            },
            {
              "internalType": "bytes",
              "name": "paymasterAndData",
              "type": "bytes"
            },
            {
              "internalType": "bytes",
              "name": "signature",
              "type": "bytes"
            }
          ],
          "internalType": "struct UserOperation",
          "name": "op",
          "type": "tuple"
        },
        {
          "internalType": "address",
          "name": "target",
          "type": "address"
        },
        {
          "internalType": "bytes",
          "name": "targetCallData",
          "type": "bytes"
        }
      ],
      "name": "simulateHandleOp",
      "outputs": [],
      "stateMutability": "nonpayable",
      "type": "function"
    },
    {
      "inputs": [
        {
          "components": [
            {
              "internalType": "address",
              "name": "sender",
              "type": "address"
            },
            {
              "internalType": "uint256",
              "name": "nonce",
              "type": "uint256"
            },
            {
              "internalType": "bytes",
              "name": "initCode",
              "type": "bytes"
            },
            {
              "internalType": "bytes",
              "name": "callData",
              "type": "bytes"
            },
            {
              "internalType": "uint256",
              "name": "callGasLimit",
              "type": "uint256"
            },
            {
              "internalType": "uint256",
              "name": "verificationGasLimit",
              "type": "uint256"
            },
            {
              "internalType": "uint256",
              "name": "preVerificationGas",
              "type": "uint256"
            },
            {
              "internalType": "uint256",
              "name": "maxFeePerGas",
              "type": "uint256"
            },
            {
              "internalType": "uint256",
              "name": "maxPriorityFeePerGas",
              "type": "uint256"
            },
            {
              "internalType": "bytes",
              "name": "paymasterAndData",
              "type": "bytes"
            },
            {
              "internalType": "bytes",
              "name": "signature",
              "type": "bytes"
            }
          ],
          "internalType": "struct UserOperation",
          "name": "userOp",
          "type": "tuple"
        }
      ],
      "name": "simulateValidation",
      "outputs": [],
      "stateMutability": "nonpayable",
      "type": "function"
    },
    {
      "inputs": [],
      "name": "unlockStake",
      "outputs": [],
      "stateMutability": "nonpayable",
      "type": "function"
    },
    {
      "inputs": [
        {
          "internalType": "address payable",
          "name": "withdrawAddress",
          "type": "address"
        }
      ],
      "name": "withdrawStake",
      "outputs": [],
      "stateMutability": "nonpayable",
      "type": "function"
    },
    {
      "inputs": [
        {
          "internalType": "address payable",
          "name": "withdrawAddress",
          "type": "address"
        },
        {
          "internalType": "uint256",
          "name": "withdrawAmount",
          "type": "uint256"
        }
      ],
      "name": "withdrawTo",
      "outputs": [],
      "stateMutability": "nonpayable",
      "type": "function"
    },
    {
      "stateMutability": "payable",
      "type": "receive"
    }
  ],
  "bytecode": "0x60a0604052604051620000129062000076565b604051809103906000f0801580156200002f573d6000803e3d6000fd5b5073ffffffffffffffffffffffffffffffffffffffff1660809073ffffffffffffffffffffffffffffffffffffffff168152503480156200006f57600080fd5b5062000084565b6103628062006f5483390190565b608051616ead620000a7600039600081816115c501526138250152616ead6000f3fe6080604052600436106101025760003560e01c8063957122ab11610095578063bb9fe6bf11610064578063bb9fe6bf1461033b578063c23a5cea14610352578063d6383f941461037b578063ee219423146103a4578063fc7e286d146103cd57610112565b8063957122ab146102905780639b249f69146102b9578063a6193531146102e2578063b760faf91461031f57610112565b80634b1d7cf5116100d15780634b1d7cf5146101c25780635287ce12146101eb57806370a08231146102285780638f41ec5a1461026557610112565b80630396cb60146101175780631d732756146101335780631fad948c14610170578063205c28781461019957610112565b36610112576101103361040e565b005b600080fd5b610131600480360381019061012c9190613c77565b6104ca565b005b34801561013f57600080fd5b5061015a60048036038101906101559190614074565b610881565b6040516101679190614115565b60405180910390f35b34801561017c57600080fd5b50610197600480360381019061019291906141c4565b610a55565b005b3480156101a557600080fd5b506101c060048036038101906101bb9190614224565b610bac565b005b3480156101ce57600080fd5b506101e960048036038101906101e491906142ba565b610dd1565b005b3480156101f757600080fd5b50610212600480360381019061020d919061431a565b6112ca565b60405161021f9190614423565b60405180910390f35b34801561023457600080fd5b5061024f600480360381019061024a919061431a565b611417565b60405161025c9190614115565b60405180910390f35b34801561027157600080fd5b5061027a61148c565b6040516102879190614115565b60405180910390f35b34801561029c57600080fd5b506102b760048036038101906102b2919061443e565b611491565b005b3480156102c557600080fd5b506102e060048036038101906102db91906144d3565b6115c3565b005b3480156102ee57600080fd5b5061030960048036038101906103049190614545565b61169d565b604051610316919061459d565b60405180910390f35b6103396004803603810190610334919061431a565b61040e565b005b34801561034757600080fd5b506103506116d9565b005b34801561035e57600080fd5b50610379600480360381019061037491906145b8565b611889565b005b34801561038757600080fd5b506103a2600480360381019061039d91906145e5565b611b89565b005b3480156103b057600080fd5b506103cb60048036038101906103c69190614545565b611cd9565b005b3480156103d957600080fd5b506103f460048036038101906103ef919061431a565b611f66565b6040516104059594939291906146b1565b60405180910390f35b6104188134611fff565b60008060008373ffffffffffffffffffffffffffffffffffffffff1673ffffffffffffffffffffffffffffffffffffffff16815260200190815260200160002090508173ffffffffffffffffffffffffffffffffffffffff167f2da466a7b24304f47e87fa2e1e5a81b9831ce54fec19055ce277ca2f39ba42c48260000160009054906101000a90046dffffffffffffffffffffffffffff166040516104be919061473f565b60405180910390a25050565b60008060003373ffffffffffffffffffffffffffffffffffffffff1673ffffffffffffffffffffffffffffffffffffffff168152602001908152602001600020905060008263ffffffff1611610555576040517f08c379a000000000000000000000000000000000000000000000000000000000815260040161054c906147b7565b60405180910390fd5b8060010160009054906101000a900463ffffffff1663ffffffff168263ffffffff1610156105b8576040517f08c379a00000000000000000000000000000000000000000000000000000000081526004016105af90614823565b60405180910390fd5b60003482600001600f9054906101000a90046dffffffffffffffffffffffffffff166dffffffffffffffffffffffffffff166105f49190614872565b905060008111610639576040517f08c379a0000000000000000000000000000000000000000000000000000000008152600401610630906148f2565b60405180910390fd5b6dffffffffffffffffffffffffffff801681111561068c576040517f08c379a00000000000000000000000000000000000000000000000000000000081526004016106839061495e565b60405180910390fd5b6040518060a001604052808360000160009054906101000a90046dffffffffffffffffffffffffffff166dffffffffffffffffffffffffffff168152602001600115158152602001826dffffffffffffffffffffffffffff1681526020018463ffffffff168152602001600065ffffffffffff168152506000803373ffffffffffffffffffffffffffffffffffffffff1673ffffffffffffffffffffffffffffffffffffffff16815260200190815260200160002060008201518160000160006101000a8154816dffffffffffffffffffffffffffff02191690836dffffffffffffffffffffffffffff160217905550602082015181600001600e6101000a81548160ff021916908315150217905550604082015181600001600f6101000a8154816dffffffffffffffffffffffffffff02191690836dffffffffffffffffffffffffffff16021790555060608201518160010160006101000a81548163ffffffff021916908363ffffffff16021790555060808201518160010160046101000a81548165ffffffffffff021916908365ffffffffffff1602179055509050503373ffffffffffffffffffffffffffffffffffffffff167fa5ae833d0bb1dcd632d98a8b70973e8516812898e19bf27b70071ebc8dc52c0182856040516108749291906149af565b60405180910390a2505050565b6000805a90503073ffffffffffffffffffffffffffffffffffffffff163373ffffffffffffffffffffffffffffffffffffffff16146108f5576040517f08c379a00000000000000000000000000000000000000000000000000000000081526004016108ec90614a24565b60405180910390fd5b60008560000151905060008160400151905061138882606001518201015a1015610943577fdeaddead0000000000000000000000000000000000000000000000000000000060005260206000fd5b600080895111156109e7576000610961846000015160008c8661210f565b9050806109e5576000610975610800612128565b90506000815111156109df57846000015173ffffffffffffffffffffffffffffffffffffffff168a602001517f1c4fada7374c0a9ee8841fc38afe82932dc0f8e69012e927f061a8bae611a2018760200151846040516109d6929190614ac3565b60405180910390a35b60019250505b505b600088608001515a8603019050610a466000838b8b8b8080601f016020809104026020016040519081016040528093929190818152602001838380828437600081840152601f19601f8201169050808301925050505050505085612158565b95505050505050949350505050565b600083839050905060008167ffffffffffffffff811115610a7957610a78613cbf565b5b604051908082528060200260200182016040528015610ab257816020015b610a9f613abe565b815260200190600190039081610a975790505b50905060005b82811015610b32576000828281518110610ad557610ad4614af3565b5b60200260200101519050600080610b11848a8a87818110610af957610af8614af3565b5b9050602002810190610b0b9190614b31565b856124cf565b91509150610b228483836000612679565b5050508080600101915050610ab8565b506000805b83811015610b9957610b8881888884818110610b5657610b55614af3565b5b9050602002810190610b689190614b31565b858481518110610b7b57610b7a614af3565b5b602002602001015161280c565b820191508080600101915050610b37565b50610ba48482612965565b505050505050565b60008060003373ffffffffffffffffffffffffffffffffffffffff1673ffffffffffffffffffffffffffffffffffffffff16815260200190815260200160002090508060000160009054906101000a90046dffffffffffffffffffffffffffff166dffffffffffffffffffffffffffff16821115610c5f576040517f08c379a0000000000000000000000000000000000000000000000000000000008152600401610c5690614ba6565b60405180910390fd5b818160000160009054906101000a90046dffffffffffffffffffffffffffff166dffffffffffffffffffffffffffff16610c999190614bc6565b8160000160006101000a8154816dffffffffffffffffffffffffffff02191690836dffffffffffffffffffffffffffff1602179055503373ffffffffffffffffffffffffffffffffffffffff167fd1c19fbcd4551a5edfb66d43d2e337c04837afda3482b42bdf569a8fccdae5fb8484604051610d17929190614c4f565b60405180910390a260008373ffffffffffffffffffffffffffffffffffffffff1683604051610d4590614ca9565b60006040518083038185875af1925050503d8060008114610d82576040519150601f19603f3d011682016040523d82523d6000602084013e610d87565b606091505b5050905080610dcb576040517f08c379a0000000000000000000000000000000000000000000000000000000008152600401610dc290614d0a565b60405180910390fd5b50505050565b60008383905090506000805b82811015610fbe5736868683818110610df957610df8614af3565b5b9050602002810190610e0b9190614d2a565b9050366000828060000190610e209190614d52565b915091506000836020016020810190610e399190614df3565b9050600173ffffffffffffffffffffffffffffffffffffffff168173ffffffffffffffffffffffffffffffffffffffff1603610eaa576040517f08c379a0000000000000000000000000000000000000000000000000000000008152600401610ea190614e6c565b60405180910390fd5b600073ffffffffffffffffffffffffffffffffffffffff168173ffffffffffffffffffffffffffffffffffffffff1614610f96578073ffffffffffffffffffffffffffffffffffffffff1663e3563a4f8484878060400190610f0c9190614e8c565b6040518563ffffffff1660e01b8152600401610f2b9493929190615255565b60006040518083038186803b158015610f4357600080fd5b505afa925050508015610f54575060015b610f9557806040517f86a9f750000000000000000000000000000000000000000000000000000000008152600401610f8c919061529f565b60405180910390fd5b5b8282905086610fa59190614872565b9550505050508080610fb6906152ba565b915050610ddd565b5060008167ffffffffffffffff811115610fdb57610fda613cbf565b5b60405190808252806020026020018201604052801561101457816020015b611001613abe565b815260200190600190039081610ff95790505b5090506000805b8481101561112a573688888381811061103757611036614af3565b5b90506020028101906110499190614d2a565b905036600082806000019061105e9190614d52565b9150915060008360200160208101906110779190614df3565b9050600083839050905060005b818110156111115760008989815181106110a1576110a0614af3565b5b602002602001015190506000806110dd8b8989878181106110c5576110c4614af3565b5b90506020028101906110d79190614b31565b856124cf565b915091506110ed84838389612679565b8a806110f8906152ba565b9b50505050508080611109906152ba565b915050611084565b5050505050508080611122906152ba565b91505061101b565b50600080915060005b85811015611271573689898381811061114f5761114e614af3565b5b90506020028101906111619190614d2a565b90508060200160208101906111769190614df3565b73ffffffffffffffffffffffffffffffffffffffff167f575ff3acadd5ab348fe1855e217e0f3678f8d767d7494c9f9fefbee2e17cca4d60405160405180910390a23660008280600001906111cb9190614d52565b91509150600082829050905060005b818110156112595761122b888585848181106111f9576111f8614af3565b5b905060200281019061120b9190614b31565b8b8b8151811061121e5761121d614af3565b5b602002602001015161280c565b876112369190614872565b96508780611243906152ba565b9850508080611251906152ba565b9150506111da565b50505050508080611269906152ba565b915050611133565b50600073ffffffffffffffffffffffffffffffffffffffff167f575ff3acadd5ab348fe1855e217e0f3678f8d767d7494c9f9fefbee2e17cca4d60405160405180910390a26112c08682612965565b5050505050505050565b6112d2613af6565b6000808373ffffffffffffffffffffffffffffffffffffffff1673ffffffffffffffffffffffffffffffffffffffff1681526020019081526020016000206040518060a00160405290816000820160009054906101000a90046dffffffffffffffffffffffffffff166dffffffffffffffffffffffffffff166dffffffffffffffffffffffffffff16815260200160008201600e9054906101000a900460ff1615151515815260200160008201600f9054906101000a90046dffffffffffffffffffffffffffff166dffffffffffffffffffffffffffff166dffffffffffffffffffffffffffff1681526020016001820160009054906101000a900463ffffffff1663ffffffff1663ffffffff1681526020016001820160049054906101000a900465ffffffffffff1665ffffffffffff1665ffffffffffff16815250509050919050565b60008060008373ffffffffffffffffffffffffffffffffffffffff1673ffffffffffffffffffffffffffffffffffffffff16815260200190815260200160002060000160009054906101000a90046dffffffffffffffffffffffffffff166dffffffffffffffffffffffffffff169050919050565b600181565b6000858590501480156114bb575060008373ffffffffffffffffffffffffffffffffffffffff163b145b156114fb576040517f08c379a00000000000000000000000000000000000000000000000000000000081526004016114f29061534e565b60405180910390fd5b60148282905010611588576000828260009060149261151c93929190615378565b9061152791906153f7565b60601c905060008173ffffffffffffffffffffffffffffffffffffffff163b03611586576040517f08c379a000000000000000000000000000000000000000000000000000000000815260040161157d906154a2565b60405180910390fd5b505b6040517f08c379a00000000000000000000000000000000000000000000000000000000081526004016115ba906154e5565b60405180910390fd5b7f000000000000000000000000000000000000000000000000000000000000000073ffffffffffffffffffffffffffffffffffffffff1663570e1a3683836040518363ffffffff1660e01b815260040161161e929190615505565b6020604051808303816000875af115801561163d573d6000803e3d6000fd5b505050506040513d601f19601f82011682018060405250810190611661919061553e565b6040517f6ca7b806000000000000000000000000000000000000000000000000000000008152600401611694919061529f565b60405180910390fd5b60006116a882612a85565b30466040516020016116bc9392919061556b565b604051602081830303815290604052805190602001209050919050565b60008060003373ffffffffffffffffffffffffffffffffffffffff1673ffffffffffffffffffffffffffffffffffffffff168152602001908152602001600020905060008160010160009054906101000a900463ffffffff1663ffffffff1603611778576040517f08c379a000000000000000000000000000000000000000000000000000000000815260040161176f906155ee565b60405180910390fd5b80600001600e9054906101000a900460ff166117c9576040517f08c379a00000000000000000000000000000000000000000000000000000000081526004016117c09061565a565b60405180910390fd5b60008160010160009054906101000a900463ffffffff1663ffffffff16426117f1919061567a565b9050808260010160046101000a81548165ffffffffffff021916908365ffffffffffff160217905550600082600001600e6101000a81548160ff0219169083151502179055503373ffffffffffffffffffffffffffffffffffffffff167ffa9b3c14cc825c412c9ed81b3ba365a5b459439403f18829e572ed53a4180f0a8260405161187d91906156e5565b60405180910390a25050565b60008060003373ffffffffffffffffffffffffffffffffffffffff1673ffffffffffffffffffffffffffffffffffffffff1681526020019081526020016000209050600081600001600f9054906101000a90046dffffffffffffffffffffffffffff166dffffffffffffffffffffffffffff16905060008111611941576040517f08c379a00000000000000000000000000000000000000000000000000000000081526004016119389061574c565b60405180910390fd5b60008260010160049054906101000a900465ffffffffffff1665ffffffffffff16116119a2576040517f08c379a0000000000000000000000000000000000000000000000000000000008152600401611999906157b8565b60405180910390fd5b428260010160049054906101000a900465ffffffffffff1665ffffffffffff161115611a03576040517f08c379a00000000000000000000000000000000000000000000000000000000081526004016119fa90615824565b60405180910390fd5b60008260010160006101000a81548163ffffffff021916908363ffffffff16021790555060008260010160046101000a81548165ffffffffffff021916908365ffffffffffff160217905550600082600001600f6101000a8154816dffffffffffffffffffffffffffff02191690836dffffffffffffffffffffffffffff1602179055503373ffffffffffffffffffffffffffffffffffffffff167fb7c918e0e249f999e965cafeb6c664271b3f4317d296461500e71da39f0cbda38483604051611acf929190614c4f565b60405180910390a260008373ffffffffffffffffffffffffffffffffffffffff1682604051611afd90614ca9565b60006040518083038185875af1925050503d8060008114611b3a576040519150601f19603f3d011682016040523d82523d6000602084013e611b3f565b606091505b5050905080611b83576040517f08c379a0000000000000000000000000000000000000000000000000000000008152600401611b7a90615890565b60405180910390fd5b50505050565b611b91613abe565b611b9a85612a9e565b600080611ba9600088856124cf565b915091506000611bb98383612bc6565b9050611bc3612cd9565b6000611bd160008a8761280c565b9050611bdb612cd9565b60006060600073ffffffffffffffffffffffffffffffffffffffff168a73ffffffffffffffffffffffffffffffffffffffff1614611c86578973ffffffffffffffffffffffffffffffffffffffff168989604051611c3a9291906158d5565b6000604051808303816000865af19150503d8060008114611c77576040519150601f19603f3d011682016040523d82523d6000602084013e611c7c565b606091505b5080925081935050505b8660800151838560200151866040015185856040517f8b7ac980000000000000000000000000000000000000000000000000000000008152600401611cd0969594939291906158ee565b60405180910390fd5b611ce1613abe565b611cea82612a9e565b600080611cf9600085856124cf565b915091506000611d10846000015160a00151612cdf565b90506000611d25856000015160000151612cdf565b9050611d2f613b55565b366000888060400190611d429190614e8c565b9150915060006014838390501015611d5b576000611d7e565b8282600090601492611d6f93929190615378565b90611d7a91906153f7565b60601c5b9050611d8981612cdf565b93505050506000611d9a8686612bc6565b90506000816000015190506000600173ffffffffffffffffffffffffffffffffffffffff168273ffffffffffffffffffffffffffffffffffffffff1614905060006040518060c001604052808b6080015181526020018b6040015181526020018315158152602001856020015165ffffffffffff168152602001856040015165ffffffffffff168152602001611e338c60600151612d8b565b8152509050600073ffffffffffffffffffffffffffffffffffffffff168373ffffffffffffffffffffffffffffffffffffffff1614158015611ea25750600173ffffffffffffffffffffffffffffffffffffffff168373ffffffffffffffffffffffffffffffffffffffff1614155b15611f2357600060405180604001604052808573ffffffffffffffffffffffffffffffffffffffff168152602001611ed986612cdf565b81525090508187878a846040517ffaecb4e4000000000000000000000000000000000000000000000000000000008152600401611f1a959493929190615aa5565b60405180910390fd5b808686896040517fe0cff05f000000000000000000000000000000000000000000000000000000008152600401611f5d9493929190615b00565b60405180910390fd5b60006020528060005260406000206000915090508060000160009054906101000a90046dffffffffffffffffffffffffffff169080600001600e9054906101000a900460ff169080600001600f9054906101000a90046dffffffffffffffffffffffffffff16908060010160009054906101000a900463ffffffff16908060010160049054906101000a900465ffffffffffff16905085565b60008060008473ffffffffffffffffffffffffffffffffffffffff1673ffffffffffffffffffffffffffffffffffffffff16815260200190815260200160002090506000828260000160009054906101000a90046dffffffffffffffffffffffffffff166dffffffffffffffffffffffffffff1661207d9190614872565b90506dffffffffffffffffffffffffffff80168111156120d2576040517f08c379a00000000000000000000000000000000000000000000000000000000081526004016120c990615b98565b60405180910390fd5b808260000160006101000a8154816dffffffffffffffffffffffffffff02191690836dffffffffffffffffffffffffffff16021790555050505050565b6000806000845160208601878987f19050949350505050565b60603d82811115612137578290505b604051602082018101604052818152816000602083013e8092505050919050565b6000805a905060008086600001519050600061217382612d95565b905060008260a001519050600073ffffffffffffffffffffffffffffffffffffffff168173ffffffffffffffffffffffffffffffffffffffff16036121be57826000015193506123ae565b8093506000885111156123ad5781870295506002808111156121e3576121e2615bb8565b5b8a60028111156121f6576121f5615bb8565b5b14612275578073ffffffffffffffffffffffffffffffffffffffff1663a9a2340984606001518c8b8a6040518563ffffffff1660e01b815260040161223d93929190615c2f565b600060405180830381600088803b15801561225757600080fd5b5087f115801561226b573d6000803e3d6000fd5b50505050506123ac565b8073ffffffffffffffffffffffffffffffffffffffff1663a9a2340984606001518c8b8a6040518563ffffffff1660e01b81526004016122b793929190615c2f565b600060405180830381600088803b1580156122d157600080fd5b5087f1935050505080156122e3575060015b6123ab576122ef615c7a565b806308c379a00361236c5750612303615c9c565b8061230e575061236e565b8b816040516020016123209190615d99565b6040516020818303038152906040526040517f220266b6000000000000000000000000000000000000000000000000000000008152600401612363929190615df8565b60405180910390fd5b505b8a6040517f220266b60000000000000000000000000000000000000000000000000000000081526004016123a29190615e74565b60405180910390fd5b5b5b5b5a85038701965081870295508589604001511015612403578a6040517f220266b60000000000000000000000000000000000000000000000000000000081526004016123fa9190615eee565b60405180910390fd5b6000868a604001510390506124188582611fff565b600080600281111561242d5761242c615bb8565b5b8c60028111156124405761243f615bb8565b5b1490508460a0015173ffffffffffffffffffffffffffffffffffffffff16856000015173ffffffffffffffffffffffffffffffffffffffff168c602001517f49628fd1471006c1482da88028e9ce4dbb080b815c9b0344d39e5a8e6ec1419f8860200151858d8f6040516124b79493929190615f1c565b60405180910390a45050505050505095945050505050565b60008060005a90506000846000015190506124ea8682612dcf565b6124f38661169d565b85602001818152505060008661010001358760e001358360400151846060015185608001511717171790506effffffffffffffffffffffffffffff8016811115612572576040517f08c379a000000000000000000000000000000000000000000000000000000000815260040161256990615fad565b60405180910390fd5b60008061257e84612f77565b905061258c8a8a8a84612fe8565b809850819350505061259c612cd9565b6060600073ffffffffffffffffffffffffffffffffffffffff168560a0015173ffffffffffffffffffffffffffffffffffffffff16146125ec576125e38b8b8b8587613311565b80985081925050505b60005a87039050808b60a00135101561263c578b6040517f220266b60000000000000000000000000000000000000000000000000000000081526004016126339190616019565b60405180910390fd5b828a604001818152505061264f826135cf565b8a60600181815250508a60c001355a8803018a608001818152505050505050505050935093915050565b600080612685856135d9565b915091508173ffffffffffffffffffffffffffffffffffffffff168373ffffffffffffffffffffffffffffffffffffffff16146126f957856040517f220266b60000000000000000000000000000000000000000000000000000000081526004016126f09190616093565b60405180910390fd5b801561273c57856040517f220266b6000000000000000000000000000000000000000000000000000000008152600401612733919061610d565b60405180910390fd5b6000612747856135d9565b8093508192505050600073ffffffffffffffffffffffffffffffffffffffff168173ffffffffffffffffffffffffffffffffffffffff16146127c057866040517f220266b60000000000000000000000000000000000000000000000000000000081526004016127b79190616187565b60405180910390fd5b811561280357866040517f220266b60000000000000000000000000000000000000000000000000000000081526004016127fa9190616227565b60405180910390fd5b50505050505050565b6000805a905060006128218460600151612d8b565b90503073ffffffffffffffffffffffffffffffffffffffff16631d73275686806060019061284f9190614e8c565b87856040518563ffffffff1660e01b81526004016128709493929190616373565b6020604051808303816000875af19250505080156128ac57506040513d601f19601f820116820180604052508101906128a991906163d1565b60015b61295757600060206000803e60005190507fdeaddead00000000000000000000000000000000000000000000000000000000810361292157866040517f220266b6000000000000000000000000000000000000000000000000000000008152600401612918919061644a565b60405180910390fd5b600085608001515a856129349190614bc6565b61293e9190614872565b905061294e886002888685612158565b9450505061295c565b809350505b50509392505050565b600073ffffffffffffffffffffffffffffffffffffffff168273ffffffffffffffffffffffffffffffffffffffff16036129d4576040517f08c379a00000000000000000000000000000000000000000000000000000000081526004016129cb906164c4565b60405180910390fd5b60008273ffffffffffffffffffffffffffffffffffffffff16826040516129fa90614ca9565b60006040518083038185875af1925050503d8060008114612a37576040519150601f19603f3d011682016040523d82523d6000602084013e612a3c565b606091505b5050905080612a80576040517f08c379a0000000000000000000000000000000000000000000000000000000008152600401612a7790616530565b60405180910390fd5b505050565b6000612a9082613632565b805190602001209050919050565b3073ffffffffffffffffffffffffffffffffffffffff1663957122ab828060400190612aca9190614e8c565b846000016020810190612add919061431a565b85806101200190612aee9190614e8c565b6040518663ffffffff1660e01b8152600401612b0e959493929190616550565b60006040518083038186803b158015612b2657600080fd5b505afa925050508015612b37575060015b612bc257612b43615c7a565b806308c379a003612bb15750612b57615c9c565b80612b625750612bb3565b6000815114612bab576000816040517f220266b6000000000000000000000000000000000000000000000000000000008152600401612ba29291906165d4565b60405180910390fd5b50612bbd565b505b3d6000803e3d6000fd5b612bc3565b5b50565b612bce613b6f565b6000612bd984613710565b90506000612be684613710565b9050600082600001519050600073ffffffffffffffffffffffffffffffffffffffff168173ffffffffffffffffffffffffffffffffffffffff1603612c2d57816000015190505b6000836020015190506000846040015190506000846020015190506000856040015190508165ffffffffffff168465ffffffffffff161015612c6d578193505b8065ffffffffffff168365ffffffffffff161115612c89578092505b60405180606001604052808673ffffffffffffffffffffffffffffffffffffffff1681526020018565ffffffffffff1681526020018465ffffffffffff1681525097505050505050505092915050565b43600052565b612ce7613b55565b60008060008473ffffffffffffffffffffffffffffffffffffffff1673ffffffffffffffffffffffffffffffffffffffff168152602001908152602001600020905080600001600f9054906101000a90046dffffffffffffffffffffffffffff166dffffffffffffffffffffffffffff168260000181815250508060010160009054906101000a900463ffffffff1663ffffffff1682602001818152505050919050565b6060819050919050565b6000808260c00151905060008360e001519050808203612db9578192505050612dca565b612dc582488301613794565b925050505b919050565b816000016020810190612de2919061431a565b816000019073ffffffffffffffffffffffffffffffffffffffff16908173ffffffffffffffffffffffffffffffffffffffff1681525050816020013581602001818152505081608001358160400181815250508160a001358160600181815250508160c001358160800181815250508160e001358160c00181815250508161010001358160e001818152505036600083806101200190612e829190614e8c565b915091506000828290501115612f37576014828290501015612ed9576040517f08c379a0000000000000000000000000000000000000000000000000000000008152600401612ed090616650565b60405180910390fd5b8181600090601492612eed93929190615378565b90612ef891906153f7565b60601c8360a0019073ffffffffffffffffffffffffffffffffffffffff16908173ffffffffffffffffffffffffffffffffffffffff1681525050612f71565b60008360a0019073ffffffffffffffffffffffffffffffffffffffff16908173ffffffffffffffffffffffffffffffffffffffff16815250505b50505050565b600080600073ffffffffffffffffffffffffffffffffffffffff168360a0015173ffffffffffffffffffffffffffffffffffffffff1603612fb9576001612fbc565b60035b60ff16905060008360800151828560600151028560400151010190508360c00151810292505050919050565b60008060005a905060008560000151905060008160000151905061301c89888a80604001906130179190614e8c565b6137ad565b60008260a00151905061302d612cd9565b60008073ffffffffffffffffffffffffffffffffffffffff168273ffffffffffffffffffffffffffffffffffffffff160361308557600061306d84611417565b905088811161307e57808903613081565b60005b9150505b8273ffffffffffffffffffffffffffffffffffffffff16633a871cdd85606001518c8c60200151856040518563ffffffff1660e01b81526004016130cb939291906167d4565b60206040518083038160008887f19350505050801561310857506040513d601f19601f8201168201806040525081019061310591906163d1565b60015b6131d057613114615c7a565b806308c379a0036131915750613128615c9c565b806131335750613193565b8b816040516020016131459190616838565b6040516020818303038152906040526040517f220266b6000000000000000000000000000000000000000000000000000000008152600401613188929190615df8565b60405180910390fd5b505b8a6040517f220266b60000000000000000000000000000000000000000000000000000000081526004016131c791906168aa565b60405180910390fd5b80965050600073ffffffffffffffffffffffffffffffffffffffff168273ffffffffffffffffffffffffffffffffffffffff16036132fe5760008060008573ffffffffffffffffffffffffffffffffffffffff1673ffffffffffffffffffffffffffffffffffffffff168152602001908152602001600020905060008160000160009054906101000a90046dffffffffffffffffffffffffffff166dffffffffffffffffffffffffffff169050808a11156132c2578c6040517f220266b60000000000000000000000000000000000000000000000000000000081526004016132b99190616924565b60405180910390fd5b8981038260000160006101000a8154816dffffffffffffffffffffffffffff02191690836dffffffffffffffffffffffffffff16021790555050505b5a85039650505050505094509492505050565b606060008085600001519050600081606001519050848111613368576040517f08c379a000000000000000000000000000000000000000000000000000000000815260040161335f9061699e565b60405180910390fd5b6000858203905060008360a00151905060008060008373ffffffffffffffffffffffffffffffffffffffff1673ffffffffffffffffffffffffffffffffffffffff168152602001908152602001600020905060008160000160009054906101000a90046dffffffffffffffffffffffffffff166dffffffffffffffffffffffffffff16905089811015613432578c6040517f220266b60000000000000000000000000000000000000000000000000000000081526004016134299190616a0a565b60405180910390fd5b8981038260000160006101000a8154816dffffffffffffffffffffffffffff02191690836dffffffffffffffffffffffffffff1602179055508273ffffffffffffffffffffffffffffffffffffffff1663f465c77e858e8e602001518e6040518563ffffffff1660e01b81526004016134ad939291906167d4565b60006040518083038160008887f1935050505080156134ef57506040513d6000823e3d601f19601f820116820180604052508101906134ec9190616aa8565b60015b6135b7576134fb615c7a565b806308c379a003613578575061350f615c9c565b8061351a575061357a565b8d8160405160200161352c9190616b2a565b6040516020818303038152906040526040517f220266b600000000000000000000000000000000000000000000000000000000815260040161356f929190615df8565b60405180910390fd5b505b8c6040517f220266b60000000000000000000000000000000000000000000000000000000081526004016135ae9190616b9c565b60405180910390fd5b81995080985050505050505050509550959350505050565b6000819050919050565b600080600083036135f0576000809150915061362d565b60006135fb84613710565b9050806040015165ffffffffffff164211806136225750806020015165ffffffffffff1642105b915080600001519250505b915091565b6060600061363f83613a97565b9050600083602001359050600061366485806040019061365f9190614e8c565b613aa7565b9050600061368086806060019061367b9190614e8c565b613aa7565b905060008660800135905060008760a00135905060008860c00135905060008960e00135905060008a6101000135905060006136cb8c8061012001906136c69190614e8c565b613aa7565b9050898989898989898989896040516020016136f09a99989796959493929190616bca565b6040516020818303038152906040529a5050505050505050505050919050565b613718613b6f565b6000829050600060a084901c905060008165ffffffffffff16036137405765ffffffffffff90505b600060d085901c905060405180606001604052808473ffffffffffffffffffffffffffffffffffffffff1681526020018265ffffffffffff1681526020018365ffffffffffff168152509350505050919050565b60008183106137a357816137a5565b825b905092915050565b60008282905014613a91576000836000015160000151905060008173ffffffffffffffffffffffffffffffffffffffff163b1461382157846040517f220266b60000000000000000000000000000000000000000000000000000000081526004016138189190616cb2565b60405180910390fd5b60007f000000000000000000000000000000000000000000000000000000000000000073ffffffffffffffffffffffffffffffffffffffff1663570e1a3686600001516060015186866040518463ffffffff1660e01b8152600401613887929190615505565b60206040518083038160008887f11580156138a6573d6000803e3d6000fd5b50505050506040513d601f19601f820116820180604052508101906138cb919061553e565b9050600073ffffffffffffffffffffffffffffffffffffffff168173ffffffffffffffffffffffffffffffffffffffff160361393e57856040517f220266b60000000000000000000000000000000000000000000000000000000081526004016139359190616d2c565b60405180910390fd5b8173ffffffffffffffffffffffffffffffffffffffff168173ffffffffffffffffffffffffffffffffffffffff16146139ae57856040517f220266b60000000000000000000000000000000000000000000000000000000081526004016139a59190616da6565b60405180910390fd5b60008173ffffffffffffffffffffffffffffffffffffffff163b03613a0a57856040517f220266b6000000000000000000000000000000000000000000000000000000008152600401613a019190616e20565b60405180910390fd5b60008484600090601492613a2093929190615378565b90613a2b91906153f7565b60601c90508273ffffffffffffffffffffffffffffffffffffffff1686602001517fd51a9c61267aa6196961883ecf5ff2da6619c37dac0fa92122513fb32c032d2d83896000015160a00151604051613a85929190616e4e565b60405180910390a35050505b50505050565b6000808235905080915050919050565b600060405182808583378082209250505092915050565b6040518060a00160405280613ad1613bb6565b8152602001600080191681526020016000815260200160008152602001600081525090565b6040518060a0016040528060006dffffffffffffffffffffffffffff16815260200160001515815260200160006dffffffffffffffffffffffffffff168152602001600063ffffffff168152602001600065ffffffffffff1681525090565b604051806040016040528060008152602001600081525090565b6040518060600160405280600073ffffffffffffffffffffffffffffffffffffffff168152602001600065ffffffffffff168152602001600065ffffffffffff1681525090565b604051806101000160405280600073ffffffffffffffffffffffffffffffffffffffff16815260200160008152602001600081526020016000815260200160008152602001600073ffffffffffffffffffffffffffffffffffffffff16815260200160008152602001600081525090565b6000604051905090565b600080fd5b600080fd5b600063ffffffff82169050919050565b613c5481613c3b565b8114613c5f57600080fd5b50565b600081359050613c7181613c4b565b92915050565b600060208284031215613c8d57613c8c613c31565b5b6000613c9b84828501613c62565b91505092915050565b600080fd5b600080fd5b6000601f19601f8301169050919050565b7f4e487b7100000000000000000000000000000000000000000000000000000000600052604160045260246000fd5b613cf782613cae565b810181811067ffffffffffffffff82111715613d1657613d15613cbf565b5b80604052505050565b6000613d29613c27565b9050613d358282613cee565b919050565b600067ffffffffffffffff821115613d5557613d54613cbf565b5b613d5e82613cae565b9050602081019050919050565b82818337600083830152505050565b6000613d8d613d8884613d3a565b613d1f565b905082815260208101848484011115613da957613da8613ca9565b5b613db4848285613d6b565b509392505050565b600082601f830112613dd157613dd0613ca4565b5b8135613de1848260208601613d7a565b91505092915050565b600080fd5b600073ffffffffffffffffffffffffffffffffffffffff82169050919050565b6000613e1a82613def565b9050919050565b613e2a81613e0f565b8114613e3557600080fd5b50565b600081359050613e4781613e21565b92915050565b6000819050919050565b613e6081613e4d565b8114613e6b57600080fd5b50565b600081359050613e7d81613e57565b92915050565b60006101008284031215613e9a57613e99613dea565b5b613ea5610100613d1f565b90506000613eb584828501613e38565b6000830152506020613ec984828501613e6e565b6020830152506040613edd84828501613e6e565b6040830152506060613ef184828501613e6e565b6060830152506080613f0584828501613e6e565b60808301525060a0613f1984828501613e38565b60a08301525060c0613f2d84828501613e6e565b60c08301525060e0613f4184828501613e6e565b60e08301525092915050565b6000819050919050565b613f6081613f4d565b8114613f6b57600080fd5b50565b600081359050613f7d81613f57565b92915050565b60006101808284031215613f9a57613f99613dea565b5b613fa460a0613d1f565b90506000613fb484828501613e83565b600083015250610100613fc984828501613f6e565b602083015250610120613fde84828501613e6e565b604083015250610140613ff384828501613e6e565b60608301525061016061400884828501613e6e565b60808301525092915050565b600080fd5b600080fd5b60008083601f84011261403457614033613ca4565b5b8235905067ffffffffffffffff81111561405157614050614014565b5b60208301915083600182028301111561406d5761406c614019565b5b9250929050565b6000806000806101c0858703121561408f5761408e613c31565b5b600085013567ffffffffffffffff8111156140ad576140ac613c36565b5b6140b987828801613dbc565b94505060206140ca87828801613f83565b9350506101a085013567ffffffffffffffff8111156140ec576140eb613c36565b5b6140f88782880161401e565b925092505092959194509250565b61410f81613e4d565b82525050565b600060208201905061412a6000830184614106565b92915050565b60008083601f84011261414657614145613ca4565b5b8235905067ffffffffffffffff81111561416357614162614014565b5b60208301915083602082028301111561417f5761417e614019565b5b9250929050565b600061419182613def565b9050919050565b6141a181614186565b81146141ac57600080fd5b50565b6000813590506141be81614198565b92915050565b6000806000604084860312156141dd576141dc613c31565b5b600084013567ffffffffffffffff8111156141fb576141fa613c36565b5b61420786828701614130565b9350935050602061421a868287016141af565b9150509250925092565b6000806040838503121561423b5761423a613c31565b5b6000614249858286016141af565b925050602061425a85828601613e6e565b9150509250929050565b60008083601f84011261427a57614279613ca4565b5b8235905067ffffffffffffffff81111561429757614296614014565b5b6020830191508360208202830111156142b3576142b2614019565b5b9250929050565b6000806000604084860312156142d3576142d2613c31565b5b600084013567ffffffffffffffff8111156142f1576142f0613c36565b5b6142fd86828701614264565b93509350506020614310868287016141af565b9150509250925092565b6000602082840312156143305761432f613c31565b5b600061433e84828501613e38565b91505092915050565b60006dffffffffffffffffffffffffffff82169050919050565b61436a81614347565b82525050565b60008115159050919050565b61438581614370565b82525050565b61439481613c3b565b82525050565b600065ffffffffffff82169050919050565b6143b58161439a565b82525050565b60a0820160008201516143d16000850182614361565b5060208201516143e4602085018261437c565b5060408201516143f76040850182614361565b50606082015161440a606085018261438b565b50608082015161441d60808501826143ac565b50505050565b600060a08201905061443860008301846143bb565b92915050565b60008060008060006060868803121561445a57614459613c31565b5b600086013567ffffffffffffffff81111561447857614477613c36565b5b6144848882890161401e565b9550955050602061449788828901613e38565b935050604086013567ffffffffffffffff8111156144b8576144b7613c36565b5b6144c48882890161401e565b92509250509295509295909350565b600080602083850312156144ea576144e9613c31565b5b600083013567ffffffffffffffff81111561450857614507613c36565b5b6145148582860161401e565b92509250509250929050565b600080fd5b6000610160828403121561453c5761453b614520565b5b81905092915050565b60006020828403121561455b5761455a613c31565b5b600082013567ffffffffffffffff81111561457957614578613c36565b5b61458584828501614525565b91505092915050565b61459781613f4d565b82525050565b60006020820190506145b2600083018461458e565b92915050565b6000602082840312156145ce576145cd613c31565b5b60006145dc848285016141af565b91505092915050565b600080600080606085870312156145ff576145fe613c31565b5b600085013567ffffffffffffffff81111561461d5761461c613c36565b5b61462987828801614525565b945050602061463a87828801613e38565b935050604085013567ffffffffffffffff81111561465b5761465a613c36565b5b6146678782880161401e565b925092505092959194509250565b61467e81614347565b82525050565b61468d81614370565b82525050565b61469c81613c3b565b82525050565b6146ab8161439a565b82525050565b600060a0820190506146c66000830188614675565b6146d36020830187614684565b6146e06040830186614675565b6146ed6060830185614693565b6146fa60808301846146a2565b9695505050505050565b6000819050919050565b600061472961472461471f84614347565b614704565b613e4d565b9050919050565b6147398161470e565b82525050565b60006020820190506147546000830184614730565b92915050565b600082825260208201905092915050565b7f6d757374207370656369667920756e7374616b652064656c6179000000000000600082015250565b60006147a1601a8361475a565b91506147ac8261476b565b602082019050919050565b600060208201905081810360008301526147d081614794565b9050919050565b7f63616e6e6f7420646563726561736520756e7374616b652074696d6500000000600082015250565b600061480d601c8361475a565b9150614818826147d7565b602082019050919050565b6000602082019050818103600083015261483c81614800565b9050919050565b7f4e487b7100000000000000000000000000000000000000000000000000000000600052601160045260246000fd5b600061487d82613e4d565b915061488883613e4d565b92508282019050808211156148a05761489f614843565b5b92915050565b7f6e6f207374616b65207370656369666965640000000000000000000000000000600082015250565b60006148dc60128361475a565b91506148e7826148a6565b602082019050919050565b6000602082019050818103600083015261490b816148cf565b9050919050565b7f7374616b65206f766572666c6f77000000000000000000000000000000000000600082015250565b6000614948600e8361475a565b915061495382614912565b602082019050919050565b600060208201905081810360008301526149778161493b565b9050919050565b600061499961499461498f84613c3b565b614704565b613e4d565b9050919050565b6149a98161497e565b82525050565b60006040820190506149c46000830185614106565b6149d160208301846149a0565b9392505050565b7f4141393220696e7465726e616c2063616c6c206f6e6c79000000000000000000600082015250565b6000614a0e60178361475a565b9150614a19826149d8565b602082019050919050565b60006020820190508181036000830152614a3d81614a01565b9050919050565b600081519050919050565b600082825260208201905092915050565b60005b83811015614a7e578082015181840152602081019050614a63565b60008484015250505050565b6000614a9582614a44565b614a9f8185614a4f565b9350614aaf818560208601614a60565b614ab881613cae565b840191505092915050565b6000604082019050614ad86000830185614106565b8181036020830152614aea8184614a8a565b90509392505050565b7f4e487b7100000000000000000000000000000000000000000000000000000000600052603260045260246000fd5b600080fd5b600080fd5b600080fd5b60008235600161016003833603038112614b4e57614b4d614b22565b5b80830191505092915050565b7f576974686472617720616d6f756e7420746f6f206c6172676500000000000000600082015250565b6000614b9060198361475a565b9150614b9b82614b5a565b602082019050919050565b60006020820190508181036000830152614bbf81614b83565b9050919050565b6000614bd182613e4d565b9150614bdc83613e4d565b9250828203905081811115614bf457614bf3614843565b5b92915050565b6000614c15614c10614c0b84613def565b614704565b613def565b9050919050565b6000614c2782614bfa565b9050919050565b6000614c3982614c1c565b9050919050565b614c4981614c2e565b82525050565b6000604082019050614c646000830185614c40565b614c716020830184614106565b9392505050565b600081905092915050565b50565b6000614c93600083614c78565b9150614c9e82614c83565b600082019050919050565b6000614cb482614c86565b9150819050919050565b7f6661696c656420746f2077697468647261770000000000000000000000000000600082015250565b6000614cf460128361475a565b9150614cff82614cbe565b602082019050919050565b60006020820190508181036000830152614d2381614ce7565b9050919050565b600082356001606003833603038112614d4657614d45614b22565b5b80830191505092915050565b60008083356001602003843603038112614d6f57614d6e614b22565b5b80840192508235915067ffffffffffffffff821115614d9157614d90614b27565b5b602083019250602082023603831315614dad57614dac614b2c565b5b509250929050565b6000614dc082613e0f565b9050919050565b614dd081614db5565b8114614ddb57600080fd5b50565b600081359050614ded81614dc7565b92915050565b600060208284031215614e0957614e08613c31565b5b6000614e1784828501614dde565b91505092915050565b7f4141393620696e76616c69642061676772656761746f72000000000000000000600082015250565b6000614e5660178361475a565b9150614e6182614e20565b602082019050919050565b60006020820190508181036000830152614e8581614e49565b9050919050565b60008083356001602003843603038112614ea957614ea8614b22565b5b80840192508235915067ffffffffffffffff821115614ecb57614eca614b27565b5b602083019250600182023603831315614ee757614ee6614b2c565b5b509250929050565b600082825260208201905092915050565b6000819050919050565b6000614f196020840184613e38565b905092915050565b614f2a81613e0f565b82525050565b6000614f3f6020840184613e6e565b905092915050565b614f5081613e4d565b82525050565b600080fd5b600080fd5b600080fd5b60008083356001602003843603038112614f8257614f81614f60565b5b83810192508235915060208301925067ffffffffffffffff821115614faa57614fa9614f56565b5b600182023603831315614fc057614fbf614f5b565b5b509250929050565b600082825260208201905092915050565b6000614fe58385614fc8565b9350614ff2838584613d6b565b614ffb83613cae565b840190509392505050565b6000610160830161501a6000840184614f0a565b6150276000860182614f21565b506150356020840184614f30565b6150426020860182614f47565b506150506040840184614f65565b8583036040870152615063838284614fd9565b925050506150746060840184614f65565b8583036060870152615087838284614fd9565b925050506150986080840184614f30565b6150a56080860182614f47565b506150b360a0840184614f30565b6150c060a0860182614f47565b506150ce60c0840184614f30565b6150db60c0860182614f47565b506150e960e0840184614f30565b6150f660e0860182614f47565b50615105610100840184614f30565b615113610100860182614f47565b50615122610120840184614f65565b858303610120870152615136838284614fd9565b92505050615148610140840184614f65565b85830361014087015261515c838284614fd9565b925050508091505092915050565b60006151768383615006565b905092915050565b6000823560016101600383360303811261519b5761519a614f60565b5b82810191505092915050565b6000602082019050919050565b60006151c08385614eef565b9350836020840285016151d284614f00565b8060005b878110156152165784840389526151ed828461517e565b6151f7858261516a565b9450615202836151a7565b925060208a019950506001810190506151d6565b50829750879450505050509392505050565b60006152348385614a4f565b9350615241838584613d6b565b61524a83613cae565b840190509392505050565b600060408201905081810360008301526152708186886151b4565b90508181036020830152615285818486615228565b905095945050505050565b61529981613e0f565b82525050565b60006020820190506152b46000830184615290565b92915050565b60006152c582613e4d565b91507fffffffffffffffffffffffffffffffffffffffffffffffffffffffffffffffff82036152f7576152f6614843565b5b600182019050919050565b7f41413230206163636f756e74206e6f74206465706c6f79656400000000000000600082015250565b600061533860198361475a565b915061534382615302565b602082019050919050565b600060208201905081810360008301526153678161532b565b9050919050565b600080fd5b600080fd5b6000808585111561538c5761538b61536e565b5b8386111561539d5761539c615373565b5b6001850283019150848603905094509492505050565b600082905092915050565b60007fffffffffffffffffffffffffffffffffffffffff00000000000000000000000082169050919050565b600082821b905092915050565b600061540383836153b3565b8261540e81356153be565b9250601482101561544e576154497fffffffffffffffffffffffffffffffffffffffff000000000000000000000000836014036008026153ea565b831692505b505092915050565b7f41413330207061796d6173746572206e6f74206465706c6f7965640000000000600082015250565b600061548c601b8361475a565b915061549782615456565b602082019050919050565b600060208201905081810360008301526154bb8161547f565b9050919050565b60006154cf60008361475a565b91506154da82614c83565b600082019050919050565b600060208201905081810360008301526154fe816154c2565b9050919050565b60006020820190508181036000830152615520818486615228565b90509392505050565b60008151905061553881613e21565b92915050565b60006020828403121561555457615553613c31565b5b600061556284828501615529565b91505092915050565b6000606082019050615580600083018661458e565b61558d6020830185615290565b61559a6040830184614106565b949350505050565b7f6e6f74207374616b656400000000000000000000000000000000000000000000600082015250565b60006155d8600a8361475a565b91506155e3826155a2565b602082019050919050565b60006020820190508181036000830152615607816155cb565b9050919050565b7f616c726561647920756e7374616b696e67000000000000000000000000000000600082015250565b600061564460118361475a565b915061564f8261560e565b602082019050919050565b6000602082019050818103600083015261567381615637565b9050919050565b60006156858261439a565b91506156908361439a565b9250828201905065ffffffffffff8111156156ae576156ad614843565b5b92915050565b60006156cf6156ca6156c58461439a565b614704565b613e4d565b9050919050565b6156df816156b4565b82525050565b60006020820190506156fa60008301846156d6565b92915050565b7f4e6f207374616b6520746f207769746864726177000000000000000000000000600082015250565b600061573660148361475a565b915061574182615700565b602082019050919050565b6000602082019050818103600083015261576581615729565b9050919050565b7f6d7573742063616c6c20756e6c6f636b5374616b652829206669727374000000600082015250565b60006157a2601d8361475a565b91506157ad8261576c565b602082019050919050565b600060208201905081810360008301526157d181615795565b9050919050565b7f5374616b65207769746864726177616c206973206e6f74206475650000000000600082015250565b600061580e601b8361475a565b9150615819826157d8565b602082019050919050565b6000602082019050818103600083015261583d81615801565b9050919050565b7f6661696c656420746f207769746864726177207374616b650000000000000000600082015250565b600061587a60188361475a565b915061588582615844565b602082019050919050565b600060208201905081810360008301526158a98161586d565b9050919050565b60006158bc8385614c78565b93506158c9838584613d6b565b82840190509392505050565b60006158e28284866158b0565b91508190509392505050565b600060c0820190506159036000830189614106565b6159106020830188614106565b61591d60408301876146a2565b61592a60608301866146a2565b6159376080830185614684565b81810360a08301526159498184614a8a565b9050979650505050505050565b600061596182614a44565b61596b8185614fc8565b935061597b818560208601614a60565b61598481613cae565b840191505092915050565b600060c0830160008301516159a76000860182614f47565b5060208301516159ba6020860182614f47565b5060408301516159cd604086018261437c565b5060608301516159e060608601826143ac565b5060808301516159f360808601826143ac565b5060a083015184820360a0860152615a0b8282615956565b9150508091505092915050565b604082016000820151615a2e6000850182614f47565b506020820151615a416020850182614f47565b50505050565b604082016000820151615a5d6000850182614f47565b506020820151615a706020850182614f47565b50505050565b606082016000820151615a8c6000850182614f21565b506020820151615a9f6020850182615a47565b50505050565b6000610140820190508181036000830152615ac0818861598f565b9050615acf6020830187615a18565b615adc6060830186615a18565b615ae960a0830185615a18565b615af660e0830184615a76565b9695505050505050565b600060e0820190508181036000830152615b1a818761598f565b9050615b296020830186615a18565b615b366060830185615a18565b615b4360a0830184615a18565b95945050505050565b7f6465706f736974206f766572666c6f7700000000000000000000000000000000600082015250565b6000615b8260108361475a565b9150615b8d82615b4c565b602082019050919050565b60006020820190508181036000830152615bb181615b75565b9050919050565b7f4e487b7100000000000000000000000000000000000000000000000000000000600052602160045260246000fd5b60038110615bf857615bf7615bb8565b5b50565b6000819050615c0982615be7565b919050565b6000615c1982615bfb565b9050919050565b615c2981615c0e565b82525050565b6000606082019050615c446000830186615c20565b8181036020830152615c568185614a8a565b9050615c656040830184614106565b949350505050565b60008160e01c9050919050565b600060033d1115615c995760046000803e615c96600051615c6d565b90505b90565b600060443d10615d2957615cae613c27565b60043d036004823e80513d602482011167ffffffffffffffff82111715615cd6575050615d29565b808201805167ffffffffffffffff811115615cf45750505050615d29565b80602083010160043d038501811115615d11575050505050615d29565b615d2082602001850186613cee565b82955050505050505b90565b7f4141353020706f73744f702072657665727465643a2000000000000000000000815250565b600081519050919050565b600081905092915050565b6000615d7382615d52565b615d7d8185615d5d565b9350615d8d818560208601614a60565b80840191505092915050565b6000615da482615d2c565b601682019150615db48284615d68565b915081905092915050565b6000615dca82615d52565b615dd4818561475a565b9350615de4818560208601614a60565b615ded81613cae565b840191505092915050565b6000604082019050615e0d6000830185614106565b8181036020830152615e1f8184615dbf565b90509392505050565b7f4141353020706f73744f70207265766572740000000000000000000000000000600082015250565b6000615e5e60128361475a565b9150615e6982615e28565b602082019050919050565b6000604082019050615e896000830184614106565b8181036020830152615e9a81615e51565b905092915050565b7f414135312070726566756e642062656c6f772061637475616c476173436f7374600082015250565b6000615ed860208361475a565b9150615ee382615ea2565b602082019050919050565b6000604082019050615f036000830184614106565b8181036020830152615f1481615ecb565b905092915050565b6000608082019050615f316000830187614106565b615f3e6020830186614684565b615f4b6040830185614106565b615f586060830184614106565b95945050505050565b7f41413934206761732076616c756573206f766572666c6f770000000000000000600082015250565b6000615f9760188361475a565b9150615fa282615f61565b602082019050919050565b60006020820190508181036000830152615fc681615f8a565b9050919050565b7f41413430206f76657220766572696669636174696f6e4761734c696d69740000600082015250565b6000616003601e8361475a565b915061600e82615fcd565b602082019050919050565b600060408201905061602e6000830184614106565b818103602083015261603f81615ff6565b905092915050565b7f41413234207369676e6174757265206572726f72000000000000000000000000600082015250565b600061607d60148361475a565b915061608882616047565b602082019050919050565b60006040820190506160a86000830184614106565b81810360208301526160b981616070565b905092915050565b7f414132322065787069726564206f72206e6f7420647565000000000000000000600082015250565b60006160f760178361475a565b9150616102826160c1565b602082019050919050565b60006040820190506161226000830184614106565b8181036020830152616133816160ea565b905092915050565b7f41413334207369676e6174757265206572726f72000000000000000000000000600082015250565b600061617160148361475a565b915061617c8261613b565b602082019050919050565b600060408201905061619c6000830184614106565b81810360208301526161ad81616164565b905092915050565b7f41413332207061796d61737465722065787069726564206f72206e6f7420647560008201527f6500000000000000000000000000000000000000000000000000000000000000602082015250565b600061621160218361475a565b915061621c826161b5565b604082019050919050565b600060408201905061623c6000830184614106565b818103602083015261624d81616204565b905092915050565b6101008201600082015161626c6000850182614f21565b50602082015161627f6020850182614f47565b5060408201516162926040850182614f47565b5060608201516162a56060850182614f47565b5060808201516162b86080850182614f47565b5060a08201516162cb60a0850182614f21565b5060c08201516162de60c0850182614f47565b5060e08201516162f160e0850182614f47565b50505050565b61630081613f4d565b82525050565b6101808201600082015161631d6000850182616255565b5060208201516163316101008501826162f7565b506040820151616345610120850182614f47565b506060820151616359610140850182614f47565b50608082015161636d610160850182614f47565b50505050565b60006101c082019050818103600083015261638f818688615228565b905061639e6020830185616306565b8181036101a08301526163b18184614a8a565b905095945050505050565b6000815190506163cb81613e57565b92915050565b6000602082840312156163e7576163e6613c31565b5b60006163f5848285016163bc565b91505092915050565b7f41413935206f7574206f66206761730000000000000000000000000000000000600082015250565b6000616434600f8361475a565b915061643f826163fe565b602082019050919050565b600060408201905061645f6000830184614106565b818103602083015261647081616427565b905092915050565b7f4141393020696e76616c69642062656e65666963696172790000000000000000600082015250565b60006164ae60188361475a565b91506164b982616478565b602082019050919050565b600060208201905081810360008301526164dd816164a1565b9050919050565b7f41413931206661696c65642073656e6420746f2062656e656669636961727900600082015250565b600061651a601f8361475a565b9150616525826164e4565b602082019050919050565b600060208201905081810360008301526165498161650d565b9050919050565b6000606082019050818103600083015261656b818789615228565b905061657a6020830186615290565b818103604083015261658d818486615228565b90509695505050505050565b6000819050919050565b60006165be6165b96165b484616599565b614704565b613e4d565b9050919050565b6165ce816165a3565b82525050565b60006040820190506165e960008301856165c5565b81810360208301526165fb8184615dbf565b90509392505050565b7f4141393320696e76616c6964207061796d6173746572416e6444617461000000600082015250565b600061663a601d8361475a565b915061664582616604565b602082019050919050565b600060208201905081810360008301526166698161662d565b9050919050565b600061016083016166846000840184614f0a565b6166916000860182614f21565b5061669f6020840184614f30565b6166ac6020860182614f47565b506166ba6040840184614f65565b85830360408701526166cd838284614fd9565b925050506166de6060840184614f65565b85830360608701526166f1838284614fd9565b925050506167026080840184614f30565b61670f6080860182614f47565b5061671d60a0840184614f30565b61672a60a0860182614f47565b5061673860c0840184614f30565b61674560c0860182614f47565b5061675360e0840184614f30565b61676060e0860182614f47565b5061676f610100840184614f30565b61677d610100860182614f47565b5061678c610120840184614f65565b8583036101208701526167a0838284614fd9565b925050506167b2610140840184614f65565b8583036101408701526167c6838284614fd9565b925050508091505092915050565b600060608201905081810360008301526167ee8186616670565b90506167fd602083018561458e565b61680a6040830184614106565b949350505050565b7f414132332072657665727465643a200000000000000000000000000000000000815250565b600061684382616812565b600f820191506168538284615d68565b915081905092915050565b7f4141323320726576657274656420286f72204f4f472900000000000000000000600082015250565b600061689460168361475a565b915061689f8261685e565b602082019050919050565b60006040820190506168bf6000830184614106565b81810360208301526168d081616887565b905092915050565b7f41413231206469646e2774207061792070726566756e64000000000000000000600082015250565b600061690e60178361475a565b9150616919826168d8565b602082019050919050565b60006040820190506169396000830184614106565b818103602083015261694a81616901565b905092915050565b7f4141343120746f6f206c6974746c6520766572696669636174696f6e47617300600082015250565b6000616988601f8361475a565b915061699382616952565b602082019050919050565b600060208201905081810360008301526169b78161697b565b9050919050565b7f41413331207061796d6173746572206465706f73697420746f6f206c6f770000600082015250565b60006169f4601e8361475a565b91506169ff826169be565b602082019050919050565b6000604082019050616a1f6000830184614106565b8181036020830152616a30816169e7565b905092915050565b6000616a4b616a4684613d3a565b613d1f565b905082815260208101848484011115616a6757616a66613ca9565b5b616a72848285614a60565b509392505050565b600082601f830112616a8f57616a8e613ca4565b5b8151616a9f848260208601616a38565b91505092915050565b60008060408385031215616abf57616abe613c31565b5b600083015167ffffffffffffffff811115616add57616adc613c36565b5b616ae985828601616a7a565b9250506020616afa858286016163bc565b9150509250929050565b7f414133332072657665727465643a200000000000000000000000000000000000815250565b6000616b3582616b04565b600f82019150616b458284615d68565b915081905092915050565b7f4141333320726576657274656420286f72204f4f472900000000000000000000600082015250565b6000616b8660168361475a565b9150616b9182616b50565b602082019050919050565b6000604082019050616bb16000830184614106565b8181036020830152616bc281616b79565b905092915050565b600061014082019050616be0600083018d615290565b616bed602083018c614106565b616bfa604083018b61458e565b616c07606083018a61458e565b616c146080830189614106565b616c2160a0830188614106565b616c2e60c0830187614106565b616c3b60e0830186614106565b616c49610100830185614106565b616c5761012083018461458e565b9b9a5050505050505050505050565b7f414131302073656e64657220616c726561647920636f6e737472756374656400600082015250565b6000616c9c601f8361475a565b9150616ca782616c66565b602082019050919050565b6000604082019050616cc76000830184614106565b8181036020830152616cd881616c8f565b905092915050565b7f4141313320696e6974436f6465206661696c6564206f72204f4f470000000000600082015250565b6000616d16601b8361475a565b9150616d2182616ce0565b602082019050919050565b6000604082019050616d416000830184614106565b8181036020830152616d5281616d09565b905092915050565b7f4141313420696e6974436f6465206d7573742072657475726e2073656e646572600082015250565b6000616d9060208361475a565b9150616d9b82616d5a565b602082019050919050565b6000604082019050616dbb6000830184614106565b8181036020830152616dcc81616d83565b905092915050565b7f4141313520696e6974436f6465206d757374206372656174652073656e646572600082015250565b6000616e0a60208361475a565b9150616e1582616dd4565b602082019050919050565b6000604082019050616e356000830184614106565b8181036020830152616e4681616dfd565b905092915050565b6000604082019050616e636000830185615290565b616e706020830184615290565b939250505056fea26469706673582212208720beac43e1a35d055b9c9c86d1afc1065cb023618c47dfe0b842905cd1275a64736f6c63430008110033608060405234801561001057600080fd5b50610342806100206000396000f3fe608060405234801561001057600080fd5b506004361061002b5760003560e01c8063570e1a3614610030575b600080fd5b61004a6004803603810190610045919061017b565b610060565b6040516100579190610209565b60405180910390f35b60008083836000906014926100779392919061022e565b9061008291906102ad565b60601c905060008484601490809261009c9392919061022e565b8080601f016020809104026020016040519081016040528093929190818152602001838380828437600081840152601f19601f8201169050808301925050505050505090506000602060008351602085016000875af1905060005193508061010357600093505b50505092915050565b600080fd5b600080fd5b600080fd5b600080fd5b600080fd5b60008083601f84011261013b5761013a610116565b5b8235905067ffffffffffffffff8111156101585761015761011b565b5b60208301915083600182028301111561017457610173610120565b5b9250929050565b600080602083850312156101925761019161010c565b5b600083013567ffffffffffffffff8111156101b0576101af610111565b5b6101bc85828601610125565b92509250509250929050565b600073ffffffffffffffffffffffffffffffffffffffff82169050919050565b60006101f3826101c8565b9050919050565b610203816101e8565b82525050565b600060208201905061021e60008301846101fa565b92915050565b600080fd5b600080fd5b6000808585111561024257610241610224565b5b8386111561025357610252610229565b5b6001850283019150848603905094509492505050565b600082905092915050565b60007fffffffffffffffffffffffffffffffffffffffff00000000000000000000000082169050919050565b600082821b905092915050565b60006102b98383610269565b826102c48135610274565b92506014821015610304576102ff7fffffffffffffffffffffffffffffffffffffffff000000000000000000000000836014036008026102a0565b831692505b50509291505056fea2646970667358221220fa899c3b77330148799c08ca54b6ab8ed123607211cd57c2ff3ee66bcc21d74864736f6c63430008110033",
  "linkReferences": {},
  "deployedLinkReferences": {}
}